:1000000000600020D50000004301000065120000E0
:1000100000000000000000000000000000000000E0
:100020000000000000000000000000004701000088
:100030000000000000000000490100004B0100002A
:100040004F010000570100005F0100006701000040
:100050006F010000770100007F01000087010000B0
:100060008F010000970100009F010000A701000020
:10007000E1100000B7010000BF010000510E0000B8
:10008000CF010000D7010000DF010000E701000000
:10009000EF010000F7010000950E000007020000CC
:1000A0000F020000170200001F02000027020000DC
:1000B0002F020000370200003F020000F32D000075
:1000C0006033000000E0FF1F0800000008E0FF1F91
:1000D0001804000010B572B601F016F90D4B07E0D8
:1000E000186859681C000C349A6800F019F823004D
:1000F000094A9342F4D306E018681C000834596892
:1001000000F017F82300054A9342F5D362B602F0D7
:1001100061FFFEE7C0000000CC000000D40000003A
:1001200010B5002302E010C810C104339342FAD383
:1001300010BD002302E0002204C004338B42FAD336
:100140007047FEE7FEE7FEE7FEE7FEE7FEE710B5D5
:10015000FFF7FCFF10BD10B5FFF7F8FF10BD10B59D
:10016000FFF7F4FF10BD10B5FFF7F0FF10BD10B59D
:10017000FFF7ECFF10BD10B5FFF7E8FF10BD10B59D
:10018000FFF7E4FF10BD10B5FFF7E0FF10BD10B59D
:10019000FFF7DCFF10BD10B5FFF7D8FF10BD10B59D
:1001A000FFF7D4FF10BD10B5FFF7D0FF10BD10B59D
:1001B00001F074F810BD10B501F082F810BD10B553
:1001C00001F090F810BD10B5FFF7C0FF10BD10B5DD
:1001D000FFF7BCFF10BD10B5FFF7B8FF10BD10B59D
:1001E000FFF7B4FF10BD10B5FFF7B0FF10BD10B59D
:1001F000FFF7ACFF10BD10B5FFF7A8FF10BD10B59D
:10020000FFF7A4FF10BD10B5FFF7A0FF10BD10B59C
:10021000FFF79CFF10BD10B5FFF798FF10BD10B59C
:10022000FFF794FF10BD10B5FFF790FF10BD10B59C
:10023000FFF78CFF10BD10B5FFF788FF10BD10B59C
:10024000FFF784FF10BD10B5FFF780FF10BDFFFF63
:10025000FFFFFFFFFFFFFFFFFFFFFFFFFFFFFFFFAE
:10026000FFFFFFFFFFFFFFFFFFFFFFFFFFFFFFFF9E
:10027000FFFFFFFFFFFFFFFFFFFFFFFFFFFFFFFF8E
:10028000FFFFFFFFFFFFFFFFFFFFFFFFFFFFFFFF7E
:10029000FFFFFFFFFFFFFFFFFFFFFFFFFFFFFFFF6E
:1002A000FFFFFFFFFFFFFFFFFFFFFFFFFFFFFFFF5E
:1002B000FFFFFFFFFFFFFFFFFFFFFFFFFFFFFFFF4E
:1002C000FFFFFFFFFFFFFFFFFFFFFFFFFFFFFFFF3E
:1002D000FFFFFFFFFFFFFFFFFFFFFFFFFFFFFFFF2E
:1002E000FFFFFFFFFFFFFFFFFFFFFFFFFFFFFFFF1E
:1002F000FFFFFFFFFFFFFFFFFFFFFFFFFFFFFFFF0E
:10030000FFFFFFFFFFFFFFFFFFFFFFFFFFFFFFFFFD
:10031000FFFFFFFFFFFFFFFFFFFFFFFFFFFFFFFFED
:10032000FFFFFFFFFFFFFFFFFFFFFFFFFFFFFFFFDD
:10033000FFFFFFFFFFFFFFFFFFFFFFFFFFFFFFFFCD
:10034000FFFFFFFFFFFFFFFFFFFFFFFFFFFFFFFFBD
:10035000FFFFFFFFFFFFFFFFFFFFFFFFFFFFFFFFAD
:10036000FFFFFFFFFFFFFFFFFFFFFFFFFFFFFFFF9D
:10037000FFFFFFFFFFFFFFFFFFFFFFFFFFFFFFFF8D
:10038000FFFFFFFFFFFFFFFFFFFFFFFFFFFFFFFF7D
:10039000FFFFFFFFFFFFFFFFFFFFFFFFFFFFFFFF6D
:1003A000FFFFFFFFFFFFFFFFFFFFFFFFFFFFFFFF5D
:1003B000FFFFFFFFFFFFFFFFFFFFFFFFFFFFFFFF4D
:1003C000FFFFFFFFFFFFFFFFFFFFFFFFFFFFFFFF3D
:1003D000FFFFFFFFFFFFFFFFFFFFFFFFFFFFFFFF2D
:1003E000FFFFFFFFFFFFFFFFFFFFFFFFFFFFFFFF1D
:1003F000FFFFFFFFFFFFFFFFFFFFFFFFFFFFFFFF0D
:10040000FFFFFFFFFFFFFFFFFFFFFFFFFEFFFFFFFD
:1004100080B500AF00F0B0FC00F01CFC02F0F0FC76
:10042000084B1A68084B1100180000F055FC074BE8
:10043000180000F0FBFD064B180000F019F9C0464B
:10044000BD4680BD00E0FF1FDC31000085050000D7
:10045000D904000090B583B000AF00F02DFC031E5E
:1004600007D01A4B180000F037FC012000F0F0F81C
:1004700026E0174B180000F02FFCFC1D00F038F8A8
:1004800003002370FB1D1A78124B1100180000F0B6
:1004900023FCFB1D1B78022B0DD010DC002B02D09F
:1004A000012B04D00BE0032000F0D2F808E002207A
:1004B00000F0CEF804E0012000F0CAF800E0C046E9
:1004C00000F0A0F8C046BD4603B090BDF03100007A
:1004D000043200002032000080B500AF034B18004A
:1004E00000F0FAFBC046BD4680BDC0462C3200007D
:1004F000B0B584B000AF0F243B1900221A700E254E
:100500007B1900221A703B1D180008231A000021D5
:1005100002F06BFD391DFC239B020222180002F041
:1005200076FC3B193A1D52781A703B1D1448022282
:10053000190002F06CFC7B193A1D52781A703B19B5
:100540001B78FF2B07D17B191B78FF2B01D00123D0
:1005500011E002230FE00E22BB181B78FF2B09D0FD
:10056000BB180F22BA181B7812789A429B415B4243
:10057000DBB200E000231800BD4604B0B0BDC046A9
:1005800008F0030080B582B000AF0200FB1D1A70B6
:10059000174B1B889BB21900164BFA1D12785A5440
:1005A000FB1D1B78532B05D1114B1B889AB2124BA4
:1005B0001A8013E0FB1D1B780A2B0FD10C4B1B88F4
:1005C0009AB20E4B1A800E4B1B78DBB20133DAB2B3
:1005D0000B4B1A70064B00221A8006E0044B1B8856
:1005E0009BB201339AB2024B1A80BD4602B080BD65
:1005F00014E4FF1F20E0FF1F16E4FF1F18E4FF1F95
:100600001DE4FF1F80B500AF104B1B78032B10D0EB
:1006100015DC022B0AD012DC002B12D0012B00D0EB
:100620000DE000F033F8094B02221A70074B032249
:100630001A7000F0A3F8054B00221A7002E0C046C1
:1006400000E0C046C046BD4680BDC0461CE4FF1F5A
:1006500080B582B000AF0200FB1D1A70034BFA1D7B
:1006600012781A70C046BD4602B080BD1CE4FF1F60
:1006700080B582B000AF7860034B7A681A60C046DC
:10068000BD4602B080BDC04628E3FF1FB0B5C2B072
:1006900000AF0823FF33FB1801221A7000F07CF82A
:1006A00054E02F4B1B78DBB2002B4FD02D4B1B8817
:1006B00001339AB22B4B1A802B4B842252009B1889
:1006C000DB1900221A600433FE220021180002F018
:1006D0008CFC264B1B889AB2254B1B889BB2D31AE5
:1006E0009AB27B1DFF3301321A807B1DFF331A88BB
:1006F00020493B00180002F074FC0825FF357C19E6
:100700007B1DFF331A883B001100180000F0AEF883
:10071000030023707B191B78012B10D000F04CF8DC
:10072000104B1B881900124B1B889BB21A000F4BF1
:100730001B889BB2104800F0CFFAC046FDE7084B7B
:100740001B78DBB2013BDAB2054B1A7000F068F996
:10075000031EA6D0C046C046BD4642B0B0BDC0468E
:100760001DE4FF1F1AE4FF1FF8FEFFFF18E4FF1F40
:1007700016E4FF1F20E0FF1F4432000080B500AFE9
:10078000044B1B68002B02D0024B1B689847C046E5
:10079000BD4680BD28E3FF1F80B500AF002000F0FC
:1007A00031F80200034B1A60012000F0ABFCC04698
:1007B000BD4680BD08E0FF1F80B582B000AF0020BD
:1007C00000F0A0FCFB1D00221A700FE0FB1D1A7840
:1007D00013005B009B185B00094A9B18180002F08D
:1007E00069F9FB1D1A78FB1D01321A70FB1D1B787D
:1007F000022BEBD9C046C046BD4602B080BDC04604
:100800000CE0FF1F80B584B000AF0200FB1D1A7022
:100810000F23FB1800221A701BE00F203B181A78D8
:10082000114913005B009B185B005B5CFA1D12789A
:100830009A4208D13B181A7813005B009B185B00A2
:10084000094A9B180BE00F217B181A787B1801329C
:100850001A700F23FB181B78022BDED90023180017
:10086000BD4604B080BDC0460CE0FF1FB0B588B0E7
:1008700000AF78600A00BB1C1A8000233B617B68D4
:100880001B78532B09D07B681B781A005E4B110034
:10089000180000F021FA0223B2E07B6801331B78D4
:1008A0001A257C191022BA181100180000F0C2F89D
:1008B000030023707B191B78002B05D1534B1800C4
:1008C00000F00AFA03239BE07B689A1CBB1C1B8880
:1008D000023B9BB21900100002F029F903001A0034
:1008E00018217B181A800A00BB181B88002B08D11E
:1008F000BB181A88464B1100180000F0EDF90223CE
:100900007EE07B6802331B781A001823FB181B88D3
:10091000013B9A4205D03F4B180000F0DDF904235B
:100920006EE018257B191B8801337A68D3181C7870
:100930007B689A1C7B191B88DBB2013BDBB2190078
:10094000100002F09FF903009C420DD07B191B8818
:1009500001337A68D3181B781A002F4B1100180046
:1009600000F0BAF905234BE01A23FB181B78032B80
:100970000ED10023FB60294B18787B6803331722C4
:10098000BC180C22BA18190002F0ADF9030023704C
:100990001A23FB181B78042B31D10023FB611B2386
:1009A000FB1800221A701BE01B203B181B78033336
:1009B0001A007B689B181B7819001823FB181B88EA
:1009C000DA1E3B181B78D31ADB0099400B001A0083
:1009D000FB691343FB613B181A783B1801321A700C
:1009E0001B23FB181A781823FB181B88023B9A421A
:1009F000DADB3B69FA699A4201D0062300E0012361
:100A00001800BD4608B0B0BD683200007832000062
:100A100090320000BC320000D03200001FE4FF1F03
:100A200080B500AF024B1B781800BD4680BDC046A4
:100A30001EE4FF1F80B584B000AF02003960FB1DCB
:100A40001A700F23FB1800221A70FB1D1B78303B15
:100A5000092B00D9D0E09A00794BD3181B689F4628
:100A6000784B00221A60784B00221A70774B1B7863
:100A700001229A429B415B42DAB2744B19780420FE
:100A8000002388425B41DBB21340DBB2002B01D074
:100A90000023D0E06D4B02221A706C4B1B78CAE029
:100AA0006A4B1B78032B01D00023C4E0674B042260
:100AB0001A70644B1A683B681A60644B1B78BAE082
:100AC000624B1B78032B01D90023B4E05D4B1B68FC
:100AD0005A1C5C4B1A605D4B03221A700F23FB18E3
:100AE00002221A7093E0594B1B78033B5A1E934124
:100AF000DBB2564A1278043A511E8A41D2B21340F0
:100B0000DBB2002B01D0002395E00F23FB1802225B
:100B10001A704C4B1A683B681A604C4B05221A70CD
:100B20004B4B01221A7072E0484B1B78032B01D902
:100B3000002380E0434B1B685A1C424B1A60434B16
:100B400003221A700F23FB1803221A705FE03F4B39
:100B50001B78033B5A1E9341DBB23C4A1278043A9D
:100B6000511E8A41D2B21340DBB2002B01D00023C8
:100B700061E00F23FB1803221A70324B1A683B689E
:100B80001A60324B05221A70314B01221A703EE076
:100B90002E4B1B78032B01D900234CE0294B1B68FB
:100BA0005A1C284B1A60294B03221A700F23FB187A
:100BB00004221A702BE0254B1B78033B5A1E9341ED
:100BC000DBB2224A1278043A511E8A41D2B2134053
:100BD000DBB2002B01D000232DE00F23FB180422F1
:100BE0001A70184B1A683B681A60184B05221A7065
:100BF000174B01221A700AE0134B00221A70114B96
:100C000000221A60114B06221A70002313E00E4BCB
:100C10001B78002B04D10C4B0F22BA1812781A70D3
:100C2000094B1B780F22BA1812789A4202D1074B4F
:100C30001B7800E000231800BD4604B080BDC0460C
:100C4000E03200002CE3FF1F1FE4FF1F04E0FF1F42
:100C50001EE4FF1F80B500AF80231B01180000F0C9
:100C600005F9134B01220321180000F029F9104B5C
:100C700001220C21180000F023F90D4B032203215F
:100C8000180002F064F90A4B03220C21180002F04C
:100C90005EF9084B00220321180002F0D8F8054B3A
:100CA00000220C21180002F0D2F8C046BD4680BDDB
:100CB00000B0044080F00F4080B500AF054B032129
:100CC000180002F018F903005A425341DBB2180031
:100CD000BD4680BD80F00F400FB490B5C3B000AFEB
:100CE000244B842252009B18DB1900221A60043323
:100CF000FC220021180002F078F98A235B00082109
:100D00005B18DB193B603A6888235B005B18DB19D2
:100D100019683B1D180001F071FD0823FF33FB1813
:100D200000221A7011E00824FF343B191B78114A85
:100D3000842149005218D219D35C180000F084F9BC
:100D40003B191A783B1901321A700823FF33FB183C
:100D50001B78084A842149005218D219D35C002B11
:100D6000E1D1C046C046BD4643B090BC08BC04B00B
:100D70001847C046FCFEFFFF80B500AFC0239B01B3
:100D8000180000F073F8104B01220521180000F044
:100D900097F80E4B01221D21180000F091F80C4B22
:100DA00001220521180002F052F80A4B01221D21F0
:100DB000180002F04CF8002000F00EF8002000F0BF
:100DC00023F8C046BD4680BD00C0044000D00440AA
:100DD000C0F00F4000F10F4080B582B000AF0200BC
:100DE000FB1D1A70FB1D1B785A425341DBB21A00DF
:100DF000044B0521180002F054F8C046BD4602B06D
:100E000080BDC046C0F00F4080B582B000AF020088
:100E1000FB1D1A70FB1D1B785A425341DBB21A00AE
:100E2000044B1D21180002F03CF8C046BD4602B03C
:100E300080BDC04600F10F4080B500AF034B0521D7
:100E4000180002F06FF8C046BD4680BDC0F00F40EC
:100E500080B500AF044B1B68002B02D0024B1B680F
:100E60009847C046BD4680BD30E3FF1F80B582B0C5
:100E700000AF7860054A064BD25804497B6813439B
:100E8000034A8B50C046BD4602B080BD007004408E
:100E90003810000080B500AF074A86235B000121AF
:100EA000D150064B1B68002B02D0044B1B6898479F
:100EB000C046BD4680BDC0460070034034E3FF1FFE
:100EC00080B584B000AFF860B960FB1D1A70FB6894
:100ED000BA689200D358094A1A40FB1D1B781902C0
:100EE000E023DB000B401A431100FB68BA68920054
:100EF000D150C046BD4604B080BDC046FFF8FFFFDC
:100F000080B500AF254B14225A70244B98221A70DA
:100F1000C046224B9B79DBB21A0002231340F8D063
:100F2000C0461E4B9B79DBB21A0010231340F8D148
:100F3000C0461A4B9B79DBB21A000C231340082BD6
:100F4000F7D1164B03221A71144B40225A71C04636
:100F5000124B9B79DBB21A0020231340F8D0C04615
:100F60000E4B9B79DBB21A0040231340F8D00B4B99
:100F70001B78DBB2094A3F210B40DBB21370C0463D
:100F8000064B9B79DBB21A000C2313400C2BF7D1D4
:100F900000F0C8F9C046BD4680BDC04600400640CE
:100FA00080B582B000AF0200FB1D1A70FB1D1B78DC
:100FB0007F2B09D8FB1D1B781A001F231A40044BF6
:100FC000012191400A001A60C046BD4602B080BDB2
:100FD00000E100E080B500AF00F0C6F8002000F0AE
:100FE0005DF8E1235B02180000F0F6F880239B0017
:100FF0001800FFF73BFF0C4B022201211800FFF7FE
:101000005FFF094B022202211800FFF759FF012060
:1010100000F044F8002000F075F80C20FFF7C0FF46
:10102000C046BD4680BDC0460090044080B582B039
:1010300000AF7860034B7A681A60C046BD4602B0C4
:1010400080BDC04638E3FF1F80B582B000AF02000C
:10105000FB1D1A70C046074B1B79DBB25BB2002B3D
:10106000F9DA044AFB1D1B78D371C046BD4602B0B5
:1010700080BDC04600A0064080B500AFC046064B0C
:101080001B79DBB21A0020231340F8D0024BDB7926
:10109000DBB21800BD4680BD00A0064080B582B01E
:1010A00000AF0200FB1D1A70FB1D1B78002B08D03F
:1010B0000A4BDB78DBB2094A0C210B43DBB2D3705D
:1010C00007E0064BDB78DBB2044A0C218B43DBB232
:1010D000D370C046BD4602B080BDC04600A00640E9
:1010E000B0B500AF064B1B68002B06D0044B1C6844
:1010F000FFF7C2FF03001800A047C046BD46B0BDC1
:1011000038E3FF1F80B582B000AF0200FB1D1A70EC
:10111000FB1D1B78002B10D0124BDB78DBB2114A81
:1011200020210B43DBB2D3700E4B9B79DBB20D4A0F
:1011300008210B43DBB293710FE00A4BDB78DBB283
:10114000084A20218B43DBB2D370064B9B79DBB27C
:10115000044A08218B43DBB29371C046BD4602B0FE
:1011600080BDC04600A0064080B500AF164B1B787E
:10117000DBB2154A02210B43DBB21370134A144B46
:10118000D35812498022D2001343114A8B500F4A80
:10119000104BD3580D49C022120513430D4A8B50F2
:1011A000094B1B7ADBB2084A0E218B43DBB2137268
:1011B000054B5B78DBB2044A01210B43DBB2537071
:1011C000C046BD4680BDC046004006400070044099
:1011D000341000000410000090B585B000AF7860B6
:1011E0001E4B9B7ADBB21F229343DCB27B68180054
:1011F00001F0C9FE0300013BDBB2184A2343DBB216
:1012000093727B68180001F0BEFE03001A007B6831
:1012100053431900124801F038FF03001A000E2052
:101220003B181A800D4B1B78DBB21F229343DAB2B6
:101230003B181B881B0A9BB2DBB21F210B40DBB2A1
:1012400006491343DBB20B70044A3B181B88DBB220
:101250005370C046BD4605B090BDC04600A00640D4
:1012600000093D0004207146084202D0EFF30980D6
:1012700001E0EFF3088081690A88074B9A4200D0A9
:10128000FEE7023181610168012901D0002100E0FF
:10129000202101607047C046ABBE000080B500AFA2
:1012A000044B1A68044B1B68044819009047C04659
:1012B000BD4680BD40E3FF1F3CE3FF1F00A006408A
:1012C00080B500AF044B1A68044B5B6804481900F2
:1012D0009047C046BD4680BD50E3FF1F44E3FF1F5B
:1012E00000B0064080B500AF044B1A68044B9B6801
:1012F000044819009047C046BD4680BD50E3FF1F1B
:1013000044E3FF1F00C0064080B500AF044A8823B5
:101310005B010021D15001F058FEC046BD4680BDA2
:101320000070044080B582B000AF894B1B78DBB2FF
:101330001A00C023134000D0C3E0854B5B79DBB2B9
:101340001A004023134000D099E0814B1B78DBB298
:101350001A00042313403AD17E4B7B607C4B5B78B0
:10136000DBB21A00302313401ED0794B1B78DBB25E
:101370001A0038231340302B06D0382B09D1BB1C60
:10138000C022D2001A8019E0BB1CA022D2001A8011
:1013900014E06F4B1B78DBB2DB08072213402022DE
:1013A0009A40BB1C1A8009E0694B1B78DBB2DB0852
:1013B0000722134001229A40BB1C1A80BB1C1B88C9
:1013C0001900786801F061FE03007B6002E0802371
:1013D0001B027B605E4BDB78DBB21A00E02313401C
:1013E000E02B47D000D99DE0C02B3ED000D999E03A
:1013F000A02B34D000D995E0802B2AD000D991E0E1
:10140000602B1FD000D98DE0402B14D000D989E08B
:10141000002B02D0202B07D084E07A6813009B00B9
:101420009B18DB017B607EE07A6813009B009B18B1
:101430001B027B6077E07A6813001B019B1ADB01BB
:101440007B6070E07A6813009B009B185B027B60F6
:1014500069E07B68B722920053437B6063E07B685E
:10146000B722D20053437B605DE07B683A4A534326
:101470007B6058E07B68394A53437B6053E0344BD0
:101480001B79DBB21A001F2313409AB2BB1C013236
:101490001A80BB1C1B8819002E4801F0F6FD0300C2
:1014A0007B602B4B5B79DBB21A001F2313409AB28F
:1014B000BB1C18321A80BB1C1A887B6853437B60A4
:1014C00031E0234B1B78DBB21A00C0231340402BC2
:1014D0001DD11F4B5B78DBB21A000123134003D1EF
:1014E00080231B027B601EE0194B1B7ADBB25B087A
:1014F0000722134001229A40BB1C1A80BB1C1B8888
:101500001900174801F0C1FD03007B600BE0104B90
:101510001B78DBB21A00C0231340802B13D10D4B74
:101520007B6000E0C0460F4A0F4BD3581B0F0F22C1
:10153000134001331900786801F0A7FD03001A0079
:101540000A4B1A6000E0C046BD4602B080BDC046EE
:101550000040064000127A0095080000710B000060
:1015600000093D00007004404410000000E0FF1F2F
:101570002022C36810B59343C3608269836A040064
:101580009A420CD000F0BCF8E268074B1A401023D6
:101590001343E360A36AA3612369E3622360E36802
:1015A000024A1340E36010BDEFCFFFFFBFBFFFFF54
:1015B000F8B5504ACB6805001A400C00CA609B067B
:1015C00002D50800FFF7D4FFA268E668531C0FDAC3
:1015D000B3050DD402235B429B1AA36090235B02E8
:1015E0003343E36023685A1C22601D70E8B20AE0AE
:1015F000414A3240022A07D00023A360803333439C
:10160000E36001204042F8BD80213C4B0902334099
:101610008B420AD10021200000F052F9E3689B06BA
:1016200002D52000FFF7A4FFE6689023F0225B02BA
:1016300033431201E360164210D1606901F0BFFD2F
:10164000002821D073051FD5230024332361236094
:101650000123E36192235B023343E360902109019C
:10166000226826690B4225D0E36A9A4200D913000A
:10167000991BB34217D1731CE3622360E3695A1EBE
:10168000A26023633570B1E780277F00380000F047
:1016900007F99423E2685B0233431A432061206018
:1016A000E761E260DAE72200300000F057F8002836
:1016B000E1D0A6E7511CE8B221601070E26A21680F
:1016C0008A4200D91100E269891B22635B0504D4B8
:1016D0000A2802D08A4200DD88E700232200300079
:1016E000E6622660A36000F039F8002800D088E7A1
:1016F0007CE7C046FFFFF7FF8A10000010A0000043
:1017000070B50400134AE36805691A400168C06AAD
:10171000E26082221A40022A02D00120404270BDBB
:10172000DB030CD5814200D201008D4209D1002398
:10173000094AA360E368E56213402560E360002086
:10174000EDE722002800491B00F008F80028EED041
:10175000E3E7C046FFFFF7FFFFFFFEFFF7B5D568E1
:101760000F00140056690190EB0205D510233000DC
:101770001D4301F021FDA061104B1D420FD0300030
:10178000A16901F022FD002806DA80230120E26829
:1017900040421343E3600FE0094B1D40E5603A000F
:1017A0003000019901F017FD4300A2695B08FB1AA4
:1017B000D318A3610028E8D1FEBDC0461000020086
:1017C000EFFFFDFFF8B50027344EC21C34689508C2
:1017D000B84212D080235B059C46002C0FD10C3000
:1017E00001F08EF8431C08D080239B050360456000
:1017F0008460002F50D130603EE00020F8BD2368A7
:1018000063452DD1A1686368002909D00F68674539
:101810001ED14F680333FB1863608B68A360F1E748
:10182000AB4220DA2E000A36B3422AD98020800546
:10183000206003262000B2430C3082186560A2604D
:1018400080245B1B6405033B146053609160D5E703
:10185000AB4213DBEF1CBB420ADD07379F42E5D3E7
:101860002700A468B9E7EE1C9E4201DA0736DBE7E1
:1018700080239B05236020000C30BFE72F000A3730
:10188000ECE79B00C01A01F03BF80130B5D0802393
:101890009B0523606560EEE7B860EDE70CE4FF1F91
:1018A00010B5FFF78FFF041E05D11722034901F081
:1018B00092FC01F095FB200010BDC0460C330000E7
:1018C000F7B54369C6680193364B04000D000092DA
:1018D0001E420BD0019801F072FC071E06D1009B3E
:1018E000012B06D0022B2DD0002B06D0022738006A
:1018F000FEBD200000F05AF82D18002DF6DBB304D1
:1019000004D52368E26A9A4200D2E362A369AB423B
:101910000EDCE16A22688A4200D20A002169D018EE
:101920000091401AA84203DB206B1918A94228DC59
:1019300020231E430023A562A36063601A4B1E4050
:10194000E660D4E7019801F037FCE268002804DA89
:10195000802313430127E360C9E7E16A23689942C2
:1019600000D90B00A1695B1821695B1A920603D5A7
:10197000A26A934200DA1300834200DA0300ED18F2
:10198000BBE7EB1AB50701D5181AA060F00703D51D
:101990000099521A9A1A6260009AD1182023216085
:1019A0009E43CBE703001000BFCFF7FFC1680200E2
:1019B0008B0705D1212201200E4B40421A6070474F
:1019C00020230B4009030AD5002B02D0806A01387E
:1019D000F5E793690068C0181369C01AF7E7002B90
:1019E00001D0806AEBE70368816900695B18181A07
:1019F000E5E7C04610E4FF1F70B5184C18492200F7
:101A0000002000F09FFF802380225B000021200047
:101A1000D20000F021FF134C134D220029000120B9
:101A200000F090FF802380225B0000212000D20084
:101A300000F012FF0D4B1B68022B0DDD0C4C290032
:101A40002200022000F07EFF80238022002120005F
:101A50005B00D20000F000FF70BDC04654E3FF1FE2
:101A60002433000090E3FF1F2633000008330000FA
:101A7000CCE3FF1FF0B5D1B00A92579A0600089246
:101A800000220B93569B079218785A1C0C92002840
:101A900002D1079851B0F0BD252833D100270C9A08
:101AA00011000D7801322B2D60D048D8202D5FD049
:101AB000232D5FD02A2D46D1089B01CB0D90002805
:101AC00003DA40420D9001204740023115780C9115
:101AD0000893089B0693002310932E2D5ED10C9B38
:101AE0001D782A2D4BD00A20013329003039CCB281
:101AF0001A00092C75D8109C1D7844430A191092BD
:101B00000133F2E7079B0B9ADB179A4209DC03D1FA
:101B10000A9B079A934204D8079B013307930C9BB7
:101B2000B2E7B368013BB360002B04DB33685A1C97
:101B300032601870F0E73100FFF73AFDECE72D2D29
:101B400011D0302D18D000230A200D932B00303BEC
:101B5000D9B20C920929BCD80D99157841435B186C
:101B60000D930132F2E701231F4399E70223FBE7BC
:101B70000423F9E70823F7E780239B00F4E7069B9B
:101B800004330693089B1B6810930C9B5D789A1C8A
:101B9000109B002B27DA00230C9210936C2D09D197
:101BA0000C9B1D786C2D22D15D7860231F430C9B0C
:101BB00002330C934C2D4DD0712D4BD01DDC682D74
:101BC0004FD06A2D00D18AE0572D1CDC412D00D169
:101BD000C4E300DD88E0002D56D10C9B013B0C9343
:101BE000E3E0089B069310230C921F43D6E70C9B5F
:101BF00001330C9320231F43DCE7742D71D07A2D21
:101C00006FD0782D40DC2800583820283CD801F0CF
:101C1000C8FAFB013B003B003B003B003B003B00A4
:101C20003B003B00A5033B0088006B037000700085
:101C300070003B006B033B003B003B003B001B0183
:101C40000E0365023B003B003C013B0038033B00B8
:101C50003B002B020C9B1D7860231F430C9B013320
:101C600009E00C9B1D78682D07D180235B001F4382
:101C70000C9B5D7802330C9304E00C9B01330C93B6
:101C800080231F43782D9FDD0D9B3A00013B089375
:101C900001231A4010921F4247D0079B079A0B99C5
:101CA0000133D217914200DDA8E004D10A9A0799C6
:101CB0008A4200D9A2E0079301240025079B089FD0
:101CC0002693DB172793013F00D49EE0089B089AD8
:101CD000DB43DB171340079AD318079365E04023D3
:101CE0001F430C9B1D78BAE72B0002229343452B20
:101CF000CAD18023DB003B43FF0601D406221092A9
:101D00000721069A1F0007328A4303CA002306925E
:101D10000022049205930023469047911A001193E4
:101D2000E5E1069B20CB0693AEE72024BF0500D556
:101D30001034079B2493DB172593089B013B37D571
:101D40000D9B002B55DD013B389300233993079BF6
:101D50003E93DB173F933E983F99389A399B121870
:101D60004B410D99002900DC01210798411807918A
:101D70000B99994203DC18D10A99914215D9002395
:101D80000D9A9A4201DD01339B1A0D9A023A9B1873
:101D90000893B368013BB360002B31DB33685A1CF6
:101DA00032601D70109B002B86D1069B0893B6E60F
:101DB0000893259A0B9B934204DC0CD10A9B249A2E
:101DC000934208D9B368013BB360002B0CDB336846
:101DD0005A1C32601C700120249A259B0021121885
:101DE0004B4124922593A8E731002000FFF7E0FB48
:101DF000F1E70023002438933994A8E70793C8E754
:101E000031002800FFF7D4FBCCE70B9B279A9342C5
:101E100004DC0DD10A9B269A934209D9B368013B91
:101E2000B360002B0BDB33685A1C326020221A701F
:101E3000269A279B12196B412692279343E731007C
:101E40002020FFF7B5FBF3E7069B1A1D7B0607D59D
:101E5000069B07991B681960C91759600692A4E789
:101E6000BB0604D5069B07991B681960F6E7FB05BE
:101E700004D5069B07991B681970EFE7069B079925
:101E80001B683F06F1D51980E8E7069B04CB119249
:101E90003A93002A01D18A4B1193119800F002FD68
:101EA0000690FB0603D5109A904200DD06920D9B2A
:101EB000069A9B1A08933A0001231A400D921F427A
:101EC00016D12024BF0500D51034079B089D1A9316
:101ED000DB171B93013D36D5089B089ADB43DB17C4
:101EE0001340079AD2180792089A013AD31A089316
:101EF000002701240025079B2093DB172193069BD5
:101F00009F4240DBDB43069ADB171340079AD31846
:101F100007933A9B06930D9B002B00D145E70124C4
:101F20000025079B089F2893DB172993013F4CD579
:101F3000089B089ADB43DB171340079AD3180793D3
:101F40003A9B069331E70B9B1B9A934204DC0CD11E
:101F50000A9B1A9A934208D9B368013BB360002BDD
:101F60000CDB33685A1C32601C7001201A9A1B9BD0
:101F7000002112184B411A921B93ABE7310020004D
:101F8000FFF716FBF1E70B9B219A934204DC0ED17D
:101F90000A9B209A93420AD9B368013BB360002B95
:101FA0000DDB33685A1C3260119AD25D1A70209A88
:101FB000219B12196B410137209221939FE7119BBE
:101FC0003100D85DFFF7F4FAF1E70B9B299A9342B1
:101FD00004DC0DD10A9B289A934209D9B368013BCE
:101FE000B360002B0BDB33685A1C326020221A705E
:101FF000289A299B12196B412892299396E7310060
:102000002020FFF7D5FAF3E740233A001A401F4299
:102010001DD00722069B0733934319000CC9049275
:102020000593069180233A001A401F4215D06B4653
:102030001B8A049300230593224A3B0700D4224ABB
:10204000224B1193F90652D521490F404FE0069BD0
:10205000059202CB04910693E4E7FB05ECD56B46B1
:102060001B7C05920493E7E740233A001A401F4285
:1020700018D00722069B0733934319000CC904921A
:102080000593069180233A001A401F4210D06B46F8
:102090001B8A0493002305930E4A3B0700D40A4A87
:1020A0000D4BCEE7069B059202CB04910693E9E720
:1020B000FB05F1D56B461B7C05920493ECE7C0460B
:1020C000283300002F330000233300003D3300008D
:1020D000FFFDFFFF323300004E330000069B04CBB0
:1020E000049200220693A74B0592A74A1193079BDF
:1020F00043924093DB1701220A980B994193409B2E
:10210000419CC01AA14152420890099144924592C3
:1021100055200022109B48A9429350540132202A96
:10212000FBD18222D200174201D1012242926E2DB0
:1021300000DD1BE1472D00DDB3E12A005123413AC8
:10214000D340012219001140134200D0EBE110915D
:1021500080233A00DB001A403A921F4200D1F4E19A
:1021600000234293449B002B01DD013B4293459B9E
:10217000429A002B02DD013B9B184293109B429C2C
:1021800043981C1900F08EFB0D9B1C1B231A0D930A
:1021900001233B403B937D4B1F4200D102E20023D1
:1021A0001493DB171593439B5A1C43921D78002D03
:1021B00000D0FAE13B9B149C002B15D120331193E6
:1021C000BF0501D510331193E3170D9F1C941D9388
:1021D000013F00D409E20D9B0D9ADB43DB1713404E
:1021E000013AE418D31A0D933A9B002B00D02DE24C
:1021F000E3171294002501241393429B013B429361
:10220000002B00DB9AE201240025129B11931E9300
:10221000DB171F93109B5F1E002B00DDADE2109BB0
:10222000109ADB43DB171340119A9C1811E24023EC
:102230003A001A401F4217D00722069B07339343E8
:1022400019000CC904920593069180233A001A40A4
:102250001F420FD06B461B8A0493002305934C4A00
:102260003B075FD44B4A5DE0069B059202CB04918D
:102270000693EAE7FB05F2D56B461B7C05920493B7
:10228000EDE740233A001A401F4220D00722069B68
:102290000733934319000CC90492059306918023D8
:1022A0003A001A401F4218D06B461B8A0493002341
:1022B000059310213B0037480B40020011930F4259
:1022C00000D114E7344B1F40002311930FE7069B06
:1022D000059202CB04910693E1E7FB05E9D56B4635
:1022E0001B7C05920493E4E77B061DD50722069B21
:1022F0000733934319000CC90E920F9306913B06C6
:1023000019D56B4638229B5E0E93DB170F930F9BFC
:10231000002B18DA0E980F99002342428B41049249
:1023200005931E4A00238CE6069B04CB0E92D2171F
:102330000F920693E3E7FB05E9D56B4638229B181D
:102340001B785BB2E0E70E9A0F9B04920593144A48
:10235000BB07E7D4134A7B07E4D483E710231F426B
:1023600000D0C6E41F43033B1093C2E428006F383B
:10237000092800D9E7E000F004FFD28BE6E6E6E6A4
:1023800017E6E68B4E3300003233000001020000F6
:102390003533000023330000FFFDFFFF373300001B
:1023A000393300003B33000000231093049B059A4F
:1023B000134300D1CCE6049C059D059B049ADB07E2
:1023C00052081A43059B32925B083393049A059B8B
:1023D00092089B071A43059B34929B0835933498C7
:1023E0003599329A339B12184B411907100908434B
:1023F00019092C902D912C982D9912184B411906E2
:10240000100A0843190A2E902F912E982F9912180E
:102410004B411904100C0843190C3090319130983D
:10242000319912184B4100213C933D913C983D99C4
:1024300012184B415907DB082B93D00800230622C2
:1024400008432A90A4185D412A982B990A22002358
:1024500000F055FE241A8D412B0722091A432B093F
:10246000369237930A222A9B2B9C36983799C018AC
:10247000614128254243049B109C30339B1A3EAA9D
:1024800052191355230001330490059110938DE7E1
:1024900000220F2048A9049C059B1C4319D11092CF
:1024A00056E62800583811284DD800F072FEF1FF8A
:1024B0004C004C004C004C004C004C004C004C00BC
:1024C0003C004C004C007DFF3C003C003C004C00BC
:1024D0007DFF049C119B04401C5D059B54541B070D
:1024E0009C46049B01321D09059B1C0963462B4336
:1024F00004930594CFE70498084030309854059829
:10250000013345070498C40805982543C00804957D
:1025100005900498059C2043EDD1109318E6002304
:10252000072148AAF5E745AB039344AB029342ABBE
:10253000019343AB009328003B00589C48AA46A94E
:10254000A047109004E60023E7E7429B109A9B1AED
:1025500000D412E63A9B10E6099BAB4203DC0CD197
:10256000089BA34209D9B368013BB360002B14DB7D
:1025700033685A1C326020221A7001220023A418EA
:102580005D410D9B5A1E131BE6D50D9B0D99DB4338
:10259000DB170B40D21A0D9202E631002020FFF724
:1025A00007F8EAE700240025EBE7099B159A934218
:1025B00004DC0CD1089B149A934208D9B368013B00
:1025C000B360002B0CDB33685A1C32601D70012194
:1025D000149B159C00225B18544114931594E2E55A
:1025E00031002800FEF7E4FFF1E7099B1D9A9342B2
:1025F00004DC0DD1089B1C9A934209D9B368013BB6
:10260000B360002B0DDB33685A1C3260119A1A70CC
:1026100001201C9A1D9B002112184B411C921D93F6
:10262000D6E531001198FEF7C3FFF1E748ABE85C4F
:10263000E3173C2821D03E286AD116941793459B76
:10264000013B4593002B42DA169C0135109BAB42AF
:10265000ECDC3B9B002B0CD0E3170D9D22942393C5
:10266000013D00D4A9E00D9B0D9ADB43DB1713401D
:10267000E418079B1B19FFF730FB18941993449B30
:10268000013B4493002B01DA189CDEE7099B199A61
:10269000934204DC0DD1089B189A934209D9B36880
:1026A000013BB360002B0DDB33685A1C32603022D3
:1026B0001A700121189B199C00225B185441189331
:1026C0001994DCE731003020FEF772FFF1E7099B37
:1026D000179A934204DC0DD1089B169A934209D9AC
:1026E000B368013BB360002B0DDB33685A1C3260CA
:1026F00030221A700121169B179C00225B1854414E
:10270000169317949BE731003020FEF751FFF1E755
:10271000099A934203DB0BD1089BA34208D9B36803
:10272000013BB360002B05DB33685A1C3260187024
:1027300001348AE73100FEF73BFFF9E7099B139A62
:10274000934204DC0DD1089B129A934209D9B368D5
:10275000013BB360002B0BDB33685A1C3260302224
:102760001A70129A139B12196B411292139344E53B
:1027700031003020FEF71CFFF3E7099B1F9A9342BC
:1027800004DC0ED1089B1E9A93420AD9B36848AA6A
:10279000013BB85CB360002B0BDB33685A1C326022
:1027A00018701E9A1F9B12196B411E921F933B00BB
:1027B00031E53100FEF7FCFEF3E7099B239A9342D3
:1027C00004DC0DD1089B229A934209D9B368013BDE
:1027D000B360002B0DDB33685A1C326020221A7064
:1027E0000120229A239B002112184B41229223930D
:1027F00036E731002020FEF7DBFEF1E770B594B03C
:102800000C000600150000213C2205A800F0EDFB9D
:102810000A23012208930E4B009407930D4B019558
:10282000029352420A4B05A80596FFF723F9079B2E
:102830000400013B0793002B05DB0022059B1A7067
:10284000200014B070BD05A90020FEF7B1FEF7E727
:10285000FFFFFF7F6F300000F0B5C5680400012066
:10286000AE070CD080208000824213D08020C000B0
:10287000824205D08020400082420BD0FF38F0BD5C
:102880002100012324311543002021612160E361EF
:10289000E560F4E7024F5E1E0120BE42F3D9EEE789
:1028A000FEFFFF000300032110B51A000B4219D1EF
:1028B000114C1368114959189943214219D0DCB2BF
:1028C000511C002C0BD0FF242402911C234206D063
:1028D000FF2109040B40591E8B41D318D91C01302C
:1028E000081A05E001335C1E2478002CDDD1101A93
:1028F00010BD0432DDE7C04680808080FFFEFEFE12
:1029000070B50D4D04002B68002B01D10B4B2B60D3
:1029100003232E6803349C433419200000F09AF8F6
:10292000002802D12C60300070BD0C220126044B1F
:1029300076421A60F7E7C04608E4FF1F20E4FF1F55
:1029400010E4FF1FF7B50D0001901000140000F017
:1029500033F82B78722B1CD0772B1DD0612B26D10E
:10296000144A593B0220691C03278446042601258A
:1029700008782B2813D0622816D0E260019A626191
:102980001B0704D5022200212000FEF799FF20003A
:10299000FEBD00230122E5E704230222E2E76046B0
:1029A0003A4303430131E3E732432B43FAE7002480
:1029B000EDE7C04602800000F0B5C5680400476935
:1029C000066989B0AB0720D02B0716D400F022F897
:1029D000380000F0EEFB2B0502D5300000F009FBBB
:1029E0000B4BAD0DAD059D4207D120226846216AF3
:1029F00000F0EEFB684600F03CFB3C22002120008A
:102A000000F0F3FA002009B0F0BD01204042FAE7DF
:102A1000000080ADF8B5002812D000F027F80500BE
:102A20002800F8BD38006043084BC01800F01EF8BD
:102A3000002801D001256D420134A642F2DCEFE707
:102A4000034B040005003C271E68F6E754E3FF1F14
:102A50000833000003000448002803D0002283420A
:102A6000524110007047C04620ECFF1FC36870B58C
:102A700003221E0004001640134211D09B0611D5FC
:102A8000856AFEF775FDE368094A20001340E3609C
:102A9000FEF736FE0022060029002000FEF710FF98
:102AA000300070BD83690568ED180369ED1AEAE727
:102AB000FFCFFFFF80B582B000AF78607B68002257
:102AC0001A70C046BD4602B080BD80B582B000AF6E
:102AD0000200FB1D1A70FB1D1B782F2B08D9FB1D54
:102AE0001B78392B04D8FB1D1B78303BDBB21AE076
:102AF000FB1D1B78402B08D9FB1D1B78462B04D8E7
:102B0000FB1D1B78373BDBB20DE0FB1D1B78602BF8
:102B100008D9FB1D1B78662B04D8FB1D1B78573B7F
:102B2000DBB200E0FF231800BD4602B080BDF0B567
:102B300087B000AF78600A00BB1C1A80BB1C1B88E2
:102B4000012213409BB25A425341DBB2BA1C128895
:102B5000013A79688A1812780A3A511E8A41D2B22B
:102B60001340DBB2002B01D0002387E0BB1C1B8885
:102B7000013B002B00DA01335B101A0015217B1892
:102B80001A707B181B780121180000F048FA030026
:102B90003B613B69002B01D100236FE00F23FB1841
:102BA00000221A700E23FB1800221A701623FB183D
:102BB00000221A804BE016243B191B885B001A0088
:102BC0007B689B181B781800FFF77FFF03001A0033
:102BD0000E257B1912011A703B191B885B0001330B
:102BE0007A68D3181B780F26BC191800FFF76DFF01
:102BF000030023707B191B78FF3B5A425341DAB222
:102C0000BB191B78FF3B59424B41DBB21343DBB28C
:102C1000002B01D0002331E016203B181B883A69B5
:102C2000D31819780E23FA180F23FB1812781B7883
:102C30001343DAB204003B181B883869C3180A43EF
:102C4000D2B21A703B191A883B1901321A80152129
:102C50007B181B789BB21622BA1812889A42AAD304
:102C60000C007B181A7839697B68180000F0B9F9F4
:102C70003B69180000F0BDF93B191B781800BD46F0
:102C800007B0F0BD80B584B000AF78600A00FB1CCF
:102C90001A700F23FB1800221A700E23FB18002253
:102CA0001A7010E00E203B181B787A68D318197838
:102CB0000F22BB18BA1812788A181A703B181A78A3
:102CC0003B1801321A700E23FA18FB1C12781B787D
:102CD0009A42E7D30F23FB181B78DB43DBB21800C3
:102CE000BD4604B080BD90B587B000AFB9607A60D2
:102CF0000F217B18021C1A701723FB1800221A7070
:102D00007B181B78042B0FD013DC022B02D0032B73
:102D100005D00EE01723FB1802221A700AE01723D1
:102D2000FB1803221A7005E01723FB1804221A70FF
:102D300000E0C04617243B191A78BB68190001202F
:102D400000F009F802007B681A603B191B78180034
:102D5000BD4607B090BD80B584B000AF39601100AA
:102D6000FB1D021C1A70BB1D0A1C1A700023FB609D
:102D70000B23FB1800221A702FE0FB1D1B78002B81
:102D800015D0BB1D1B785A1E0B217B181B78D31A3C
:102D90001A003B689B181B781A007B181B78DB0015
:102DA0009A4013001A00FB681343FB600FE00B21ED
:102DB0007B181B783A68D3181B781A007B181B788D
:102DC000DB009A4013001A00FB681343FB600B21E1
:102DD0007B181A787B1801321A700B23FA18BB1D66
:102DE00012781B789A42C8D3FB681800BD4604B01D
:102DF00080BD80B500AFFEF71FF8C046BD4680BD60
:102E000080B500AFFEF7E6F8C046BD4680BD80B590
:102E100086B000AFF860B9607A6000237B610DE096
:102E20007B699A00FB68D3181A007B699B00B9681C
:102E3000CB1812681A607B6901337B617A697B6801
:102E40009A42EDD3C046C046BD4606B080BD80B5AF
:102E500082B000AF786008001100FB1C021C1A70E1
:102E6000BB1C0A1C1A70BB1C1B78002B0BD17B6887
:102E70005B69FA1C1278012191400A00D2431A4082
:102E80007B685A6109E07B685B69FA1C1278012152
:102E900091400A001A437B685A61C046BD4602B0A1
:102EA00080BD80B582B000AF786008001100FB1CC7
:102EB000021C1A70BB1C0A1C1A70BB1C1B78002B4E
:102EC0000AD07B681B68FA1C1278012191400A0025
:102ED0001A437B681A600AE07B681B68FA1C127848
:102EE000012191400A00D2431A407B681A60C04613
:102EF000BD4602B080BD80B582B000AF78600A00E8
:102F0000FB1C1A707B681B69FA1C12780121914026
:102F10000A00D24313405A1E9341DBB21800BD464B
:102F200002B080BD80B582B000AF78600A00FB1CA3
:102F30001A707B68DB68FA1C1278012191400A0044
:102F40001A437B68DA60C046BD4602B080BD80B5DA
:102F500084B000AFF860B960FB1D1A70FB68BA68F6
:102F60009200D358032293431A00FB1D1B780321C0
:102F70000B401A431100FB68BA689200D150C0465A
:102F8000BD4604B080BD80B582B000AF78607A687D
:102F900096239B019A4205D07A68E1235B029A420C
:102FA00002D003E0102302E0112300E00023180008
:102FB000BD4602B080BD80B500AFFDF7A1FFFDF7B3
:102FC00027FAFDF747FAC046FDE780B500AFC046D7
:102FD000BD4680BD10B5FEF70FFDFFF7ECFF10BD3D
:102FE000FEE710B500F0A2F810BD10B500F0B4F87F
:102FF00010BD10B5002811D080210C3849050160A2
:103000008268002A0AD013688B4207D1436854684B
:1030100003331B19436093688360F1E710BD0A0C0A
:1030200070B51400030C89B280B25C4342434B4339
:103030004843150C190C49199BB292B209199B18F7
:10304000040CE418230C5B18002B0DD180B224046F
:1030500004432000FEF7B6FB051E03D0220000212A
:10306000FFF7C3FF280070BD01246442F1E7002090
:10307000704710B50400FFF715FC0100200000F0B8
:10308000A1F810BD03000B4321D4002931D0012247
:10309000D207030901E0090112099942FBD943084B
:1030A00001E0490052089942FBD900E04908401A62
:1030B00007D35241FAD301461046704749084018D9
:1030C000F7D29218FAD34018014610467047CB0F3A
:1030D00000D04942021000D54042534008B5FFF7E6
:1030E000D4FF0CBC521000D34042002A00D5494204
:1030F0001847F446002000F001F86047704710B50B
:1031000043435143C918040C130C5C43091992B290
:10311000040C544380B2434350432204240C8018CF
:1031200061411A041B0C8018594110BD8446830765
:1031300008D18B0706D1131F04D304C904C0043B74
:10314000FBD21A1D524205D0891A801A8B5C835417
:103150000132FBD1604670478446043A09D38307A5
:1031600007D109060B0A19430B0C1943043A02C094
:10317000FCD2043203D001700130013AFBD1604629
:1031800070478C4671460139095C49008E4461469E
:1031900070478C46411E7144095E49008E44614669
:1031A00070478C46411E7144095A49008E4461465D
:1031B0007047012040427047012040427047012083
:1031C0004042704701204042704701204042704712
:1031D00001204042704710007047FFFF48656C6C4B
:1031E0006F20576F726C642025640D0A00FFFFFF8B
:1031F000454E54455220424F4F54204D4F44450DAB
:103200000A000000454E544552204150504C49435D
:103210004154494F4E204D4F44450D0A00000000D7
:103220005354415455532025640D0A004A756D705E
:1032300020746F204170706C69636174696F6E21D6
:103240000D0A00FF50726F63657373204C696E65E1
:1032500020256420737461727420256420656E6477
:103260003A2025640D0A00FF4D697373696E67206B
:10327000532025580D0A00005245636F72642043A5
:103280006865636B206661696C6564200D0A0000E7
:10329000436F6E7665727420686578537472696ED8
:1032A00067746F2056616C7565204661696C656452
:1032B000206C656E2025640D0A000000427974655B
:1032C00020436F756E74204661696C65640D0A0059
:1032D000436865636B2073756D2025580D0A00FFE8
:1032E000600A0000C00A0000280B0000900B0000DC
:1032F000F80B0000A00A0000A00A0000B60B0000B6
:103300004E0B0000E60A0000030000002A2A2A20D3
:103310005F437379735F616C6C6F63206661696C86
:1033200065640A0072007700286E756C6C290030A5
:10333000580030780030002D002B00200030313252
:10334000333435363738394142434445460030310D
:10335000323334353637383961626364656600FF6D
:083360000000400106FFFFFF21
:04000003000000D524
:00000001FF
