S02B00002F686F6D652F646F6E702F4E58502F4D43555870726573736F5F31312E392E315F323137302F776F2A
S113000000600020D500000043010000ED0900005D
S113001000000000000000000000000000000000DC
S11300200000000000000000000000004701000084
S11300300000000000000000490100004B01000026
S11300404F010000570100005F010000670100003C
S11300506F010000770100007F01000087010000AC
S11300608F010000970100009F010000A70100001C
S1130070C9070000B7010000BF010000E904000047
S1130080CF010000D7010000DF010000E7010000FC
S1130090EF010000F701000039060000070200002C
S11300A00F020000170200001F02000027020000D8
S11300B02F020000370200003F020000352000003C
S11300C08423000000E0FF1F0000000000E0FF1F89
S11300D0E400000010B572B600F0DAFC0D4B07E046
S11300E0186859681C000C349A6800F019F8230049
S11300F0094A9342F4D306E018681C00083459688E
S113010000F017F82300054A9342F5D362B602F0D3
S11301103EF8FEE7C0000000CC000000D400000060
S113012010B5002302E010C810C104339342FAD37F
S113013010BD002302E0002204C004338B42FAD332
S11301407047FEE7FEE7FEE7FEE7FEE7FEE710B5D1
S1130150FFF7FCFF10BD10B5FFF7F8FF10BD10B599
S1130160FFF7F4FF10BD10B5FFF7F0FF10BD10B599
S1130170FFF7ECFF10BD10B5FFF7E8FF10BD10B599
S1130180FFF7E4FF10BD10B5FFF7E0FF10BD10B599
S1130190FFF7DCFF10BD10B5FFF7D8FF10BD10B599
S11301A0FFF7D4FF10BD10B5FFF7D0FF10BD10B599
S11301B000F038FC10BD10B500F046FC10BD10B5C1
S11301C000F054FC10BD10B5FFF7C0FF10BD10B512
S11301D0FFF7BCFF10BD10B5FFF7B8FF10BD10B599
S11301E0FFF7B4FF10BD10B5FFF7B0FF10BD10B599
S11301F0FFF7ACFF10BD10B5FFF7A8FF10BD10B599
S1130200FFF7A4FF10BD10B5FFF7A0FF10BD10B598
S1130210FFF79CFF10BD10B5FFF798FF10BD10B598
S1130220FFF794FF10BD10B5FFF790FF10BD10B598
S1130230FFF78CFF10BD10B5FFF788FF10BD10B598
S1130240FFF784FF10BD10B5FFF780FF10BDFFFF5F
S1130250FFFFFFFFFFFFFFFFFFFFFFFFFFFFFFFFAA
S1130260FFFFFFFFFFFFFFFFFFFFFFFFFFFFFFFF9A
S1130270FFFFFFFFFFFFFFFFFFFFFFFFFFFFFFFF8A
S1130280FFFFFFFFFFFFFFFFFFFFFFFFFFFFFFFF7A
S1130290FFFFFFFFFFFFFFFFFFFFFFFFFFFFFFFF6A
S11302A0FFFFFFFFFFFFFFFFFFFFFFFFFFFFFFFF5A
S11302B0FFFFFFFFFFFFFFFFFFFFFFFFFFFFFFFF4A
S11302C0FFFFFFFFFFFFFFFFFFFFFFFFFFFFFFFF3A
S11302D0FFFFFFFFFFFFFFFFFFFFFFFFFFFFFFFF2A
S11302E0FFFFFFFFFFFFFFFFFFFFFFFFFFFFFFFF1A
S11302F0FFFFFFFFFFFFFFFFFFFFFFFFFFFFFFFF0A
S1130300FFFFFFFFFFFFFFFFFFFFFFFFFFFFFFFFF9
S1130310FFFFFFFFFFFFFFFFFFFFFFFFFFFFFFFFE9
S1130320FFFFFFFFFFFFFFFFFFFFFFFFFFFFFFFFD9
S1130330FFFFFFFFFFFFFFFFFFFFFFFFFFFFFFFFC9
S1130340FFFFFFFFFFFFFFFFFFFFFFFFFFFFFFFFB9
S1130350FFFFFFFFFFFFFFFFFFFFFFFFFFFFFFFFA9
S1130360FFFFFFFFFFFFFFFFFFFFFFFFFFFFFFFF99
S1130370FFFFFFFFFFFFFFFFFFFFFFFFFFFFFFFF89
S1130380FFFFFFFFFFFFFFFFFFFFFFFFFFFFFFFF79
S1130390FFFFFFFFFFFFFFFFFFFFFFFFFFFFFFFF69
S11303A0FFFFFFFFFFFFFFFFFFFFFFFFFFFFFFFF59
S11303B0FFFFFFFFFFFFFFFFFFFFFFFFFFFFFFFF49
S11303C0FFFFFFFFFFFFFFFFFFFFFFFFFFFFFFFF39
S11303D0FFFFFFFFFFFFFFFFFFFFFFFFFFFFFFFF29
S11303E0FFFFFFFFFFFFFFFFFFFFFFFFFFFFFFFF19
S11303F0FFFFFFFFFFFFFFFFFFFFFFFFFFFFFFFF09
S1130400FFFFFFFFFFFFFFFFFFFFFFFFFEFFFFFFF9
S113041080B500AFC0239B01180000F0F9F8104B21
S113042001220521180000F01DF90E4B01221D21A7
S1130430180000F017F90C4B01220521180001F0F7
S113044020FE0A4B01221D21180001F01AFE002093
S113045000F00EF8002000F023F8C046BD4680BD31
S113046000C0044000D00440C0F00F4000F10F4031
S113047080B582B000AF0200FB1D1A70FB1D1B7813
S11304805A425341DBB21A00044B0521180001F013
S113049022FEC046BD4602B080BDC046C0F00F403B
S11304A080B582B000AF0200FB1D1A70FB1D1B78E3
S11304B05A425341DBB21A00044B1D21180001F0CB
S11304C00AFEC046BD4602B080BDC04600F10F40E2
S11304D080B500AF034B0521180001F026FEC0468D
S11304E0BD4680BDC0F00F4080B500AF044B1B6813
S11304F0002B02D0024B1B689847C046BD4680BD06
S113050000E0FF1F80B582B000AF7860114B30224D
S11305101A70104B0922DA717B681A0C0D4BD2B297
S11305209A717B681A0A0B4BD2B25A71094B7A68DA
S1130530D2B21A71074B80221A70C046054B1B7841
S1130540DBB25BB2002BF9DAC046C046BD4602B04E
S113055080BDC0460000024080B586B000AFF860A0
S1130560B9607A6000237B6146E0284B30221A7020
S1130570264B0622DA71FB681A0C244BD2B29A710C
S1130580FB681A0A214BD2B25A71204BFA68D2B2D4
S11305901A717B699B00BA68D3181B681A0E1B4B2F
S11305A0D2B2DA727B699B00BA68D3181B681A0C42
S11305B0164BD2B29A727B699B00BA68D3181B6837
S11305C01A0A124BD2B25A727B699B00BA68D318CA
S11305D01A680E4BD2B21A720C4B80221A70C046A3
S11305E00A4B1B78DBB25BB2002BF9DAFB680433ED
S11305F0FB607B6901337B617A697B689A42B4D37F
S1130600C046C046BD4606B080BDC046000002409C
S113061080B582B000AF7860054A064BD2580449D1
S11306207B681343034A8B50C046BD4602B080BD6D
S1130630007004403810000080B500AF074A8623DC
S11306405B000121D150064B1B68002B02D0044BE8
S11306501B689847C046BD4680BDC0460070034035
S113066004E0FF1F80B584B000AFF860B960FB1DE3
S11306701A70FB68BA689200D358094A1A40FB1DE5
S11306801B781902E023DB000B401A431100FB68BE
S1130690BA689200D150C046BD4604B080BDC04681
S11306A0FFF8FFFF80B582B000AF0200FB1D1A7097
S11306B0FB1D1B787F2B09D8FB1D1B781A001F23F9
S11306C01A40044B012191400A001A60C046BD46FD
S11306D002B080BD00E100E080B500AF00F0B8F8E2
S11306E0002000F04FF8E1235B02180000F0E8F866
S11306F080239B001800FFF78BFF0C4B0222012183
S11307001800FFF7AFFF094B022202211800FFF780
S1130710A9FF012000F036F8012000F067F80C2052
S1130720FFF7C0FFC046BD4680BDC04600900440F0
S113073080B582B000AF0200FB1D1A70C046074BA3
S11307401B79DBB25BB2002BF9DA044AFB1D1B7880
S1130750D371C046BD4602B080BDC04600A006406D
S113076080B500AFC046064B1B79DBB21A002023CC
S11307701340F8D0024BDB79DBB21800BD4680BDD4
S113078000A0064080B582B000AF0200FB1D1A70C5
S1130790FB1D1B78002B08D00A4BDB78DBB2094A1F
S11307A00C210B43DBB2D37007E0064BDB78DBB2E2
S11307B0044A0C218B43DBB2D370C046BD4602B061
S11307C080BDC04600A00640B0B500AF064B1B6814
S11307D0002B06D0044B1C68FFF7C2FF030018006F
S11307E0A047C046BD46B0BD08E0FF1F80B582B03B
S11307F000AF0200FB1D1A70FB1D1B78002B10D0EC
S1130800124BDB78DBB2114A20210B43DBB2D370ED
S11308100E4B9B79DBB20D4A08210B43DBB293717B
S11308200FE00A4BDB78DBB2084A20218B43DBB2B2
S1130830D370064B9B79DBB2044A08218B43DBB2AD
S11308409371C046BD4602B080BDC04600A00640BC
S113085080B500AF164B1B78DBB2154A02210B435F
S1130860DBB21370134A144BD35812498022D200BE
S11308701343114A8B500F4A104BD3580D49C022D1
S1130880120513430D4A8B50094B1B7ADBB2084AFD
S11308900E218B43DBB21372054B5B78DBB2044A47
S11308A001210B43DBB25370C046BD4680BDC04638
S11308B000400640007004403410000004100000A2
S11308C090B585B000AF78601E4B9B7ADBB21F22D7
S11308D09343DCB27B68180001F03CFC0300013B4D
S11308E0DBB2184A2343DBB293727B68180001F031
S11308F031FC03001A007B6853431900124801F0CD
S113090075FC03001A000E203B181A800D4B1B784F
S1130910DBB21F229343DAB23B181B881B0A9BB23B
S1130920DBB21F210B40DBB206491343DBB20B7071
S1130930044A3B181B88DBB25370C046BD4605B061
S113094090BDC04600A0064000093D00B0B5A4B06B
S113095000AF88257B191B4A03CA03C338243B19FB
S1130960180050231A00002101F018FCFC239B02FC
S11309701800FFF7C7FD7919FC239B020222180017
S1130980FFF7EAFD3919FC239B020422180001F049
S113099058FB3B1D00221A6004332E22002118004C
S11309A001F0FCFB3B191A683B195B680649381DCA
S11309B001F0C2F93B1D180001F027FBC046BD46FB
S11309C024B0B0BD182300001023000080B500AF90
S11309D0FFF71EFD01F012FB034B180001F015FB9D
S11309E0FFF7B4FFC046FDE7202300000420714652
S11309F0084202D0EFF3098001E0EFF30880816937
S1130A000A88074B9A4200D0FEE7023181610168EF
S1130A10012901D0002100E0202101607047C04677
S1130A20ABBE000080B500AF044B1A68044B1B68D2
S1130A30044819009047C046BD4680BD10E0FF1F22
S1130A400CE0FF1F00A0064080B500AF044B1A68FD
S1130A50044B5B68044819009047C046BD4680BDFE
S1130A6020E0FF1F14E0FF1F00B0064080B500AF78
S1130A70044B1A68044B9B68044819009047C0460D
S1130A80BD4680BD20E0FF1F14E0FF1F00C00640EC
S1130A9080B500AF044A88235B010021D15001F0E6
S1130AA071FBC046BD4680BD007004402022C3686F
S1130AB010B59343C3608269836A04009A420CD0E0
S1130AC000F0BCF8E268074B1A4010231343E360BC
S1130AD0A36AA3612369E3622360E368024A1340C3
S1130AE0E36010BDEFCFFFFFBFBFFFFFF8B5504A73
S1130AF0CB6805001A400C00CA609B0602D50800AA
S1130B00FFF7D4FFA268E668531C0FDAB3050DD4CF
S1130B1002235B429B1AA36090235B023343E3608E
S1130B2023685A1C22601D70E8B20AE0414A324030
S1130B30022A07D00023A36080333343E3600120FB
S1130B404042F8BD80213C4B090233408B420AD11C
S1130B500021200000F052F9E3689B0602D5200032
S1130B60FFF7A4FFE6689023F0225B0233431201EF
S1130B70E360164210D1606901F0BCFB002821D06B
S1130B8073051FD523002433236123600123E3610C
S1130B9092235B023343E3609021090122682669B2
S1130BA00B4225D0E36A9A4200D91300991BB34241
S1130BB017D1731CE3622360E3695A1EA2602363A6
S1130BC03570B1E780277F00380000F007F99423DF
S1130BD0E2685B0233431A4320612060E761E2600C
S1130BE0DAE72200300000F057F80028E1D0A6E749
S1130BF0511CE8B221601070E26A21688A4200D96F
S1130C001100E269891B22635B0504D40A2802D01F
S1130C108A4200DD88E7002322003000E662266075
S1130C20A36000F039F8002800D088E77CE7C046CC
S1130C30FFFFF7FF8A10000010A0000070B5040049
S1130C40134AE36805691A400168C06AE2608222B7
S1130C501A40022A02D00120404270BDDB030CD5A9
S1130C60814200D201008D4209D10023094AA360C8
S1130C70E368E56213402560E3600020EDE72200AD
S1130C802800491B00F008F80028EED0E3E7C0462E
S1130C90FFFFF7FFFFFFFEFFF7B5D5680F00140055
S1130CA056690190EB0205D5102330001D4301F075
S1130CB01EFBA061104B1D420FD03000A16901F052
S1130CC01FFB002806DA80230120E2684042134318
S1130CD0E3600FE0094B1D40E5603A0030000199E4
S1130CE001F014FB4300A2695B08FB1AD318A3614B
S1130CF00028E8D1FEBDC04610000200EFFFFDFF52
S1130D00F8B50027344EC21C34689508B84212D096
S1130D1080235B059C46002C0FD10C3001F094F825
S1130D20431C08D080239B05036045608460002F2A
S1130D3050D130603EE00020F8BD236863452DD1DA
S1130D40A1686368002909D00F6867451ED14F6800
S1130D500333FB1863608B68A360F1E7AB4220DACE
S1130D602E000A36B3422AD980208005206003264B
S1130D702000B2430C3082186560A26080245B1BA3
S1130D806405033B146053609160D5E7AB4213DB09
S1130D90EF1CBB420ADD07379F42E5D32700A46856
S1130DA0B9E7EE1C9E4201DA0736DBE780239B0598
S1130DB0236020000C30BFE72F000A37ECE79B00CC
S1130DC0C01A01F041F80130B5D080239B0523609F
S1130DD06560EEE7B860EDE7DCE0FF1F10B5FFF7F4
S1130DE08FFF041E05D11722034901F08FFA01F089
S1130DF0D4F9200010BDC04630230000F7B5436984
S1130E00C6680193364B04000D0000921E420BD0BD
S1130E10019801F06FFA071E06D1009B012B06D042
S1130E20022B2DD0002B06D002273800FEBD200057
S1130E3000F05AF82D18002DF6DBB30404D523680E
S1130E40E26A9A4200D2E362A369AB420EDCE16A31
S1130E5022688A4200D20A002169D0180091401AFF
S1130E60A84203DB206B1918A94228DC20231E4367
S1130E700023A562A36063601A4B1E40E660D4E7BA
S1130E80019801F034FAE268002804DA802313435D
S1130E900127E360C9E7E16A2368994200D90B009E
S1130EA0A1695B1821695B1A920603D5A26A934271
S1130EB000DA1300834200DA0300ED18BBE7EB1AF3
S1130EC0B50701D5181AA060F00703D50099521A86
S1130ED09A1A6260009AD118202321609E43CBE7BE
S1130EE003001000BFCFF7FFC16802008B0705D1D4
S1130EF0212201200E4B40421A60704720230B40F0
S1130F0009030AD5002B02D0806A0138F5E79369FA
S1130F100068C0181369C01AF7E7002B01D0806A73
S1130F20EBE70368816900695B18181AE5E7C046B6
S1130F30E0E0FF1F70B5184C18492200002000F0B3
S1130F40A5FF802380225B0000212000D20000F056
S1130F5027FF134C134D22002900012000F096FFB7
S1130F60802380225B0000212000D20000F018FFC3
S1130F700D4B1B68022B0DDD0C4C290022000220B6
S1130F8000F084FF80238022002120005B00D20037
S1130F9000F006FF70BDC04624E0FF1F4823000098
S1130FA060E0FF1F4A2300002C2300009CE0FF1F89
S1130FB0F0B5D1B00A92579A0600089200220B931A
S1130FC0569B079218785A1C0C92002802D1079855
S1130FD051B0F0BD252833D100270C9A11000D78AB
S1130FE001322B2D60D048D8202D5FD0232D5FD027
S1130FF02A2D46D1089B01CB0D90002803DA4042EC
S11310000D9001204740023115780C910893089BFC
S11310100693002310932E2D5ED10C9B1D782A2D50
S11310204BD00A20013329003039CCB21A00092CE4
S113103075D8109C1D7844430A1910920133F2E7C5
S1131040079B0B9ADB179A4209DC03D10A9B079A88
S1131050934204D8079B013307930C9BB2E7B36810
S1131060013BB360002B04DB33685A1C32601870F8
S1131070F0E73100FFF73AFDECE72D2D11D0302DCC
S113108018D000230A200D932B00303BD9B20C92C8
S11310900929BCD80D99157841435B180D93013289
S11310A0F2E701231F4399E70223FBE70423F9E74F
S11310B00823F7E780239B00F4E7069B0433069399
S11310C0089B1B6810930C9B5D789A1C109B002B4B
S11310D027DA00230C9210936C2D09D10C9B1D78F8
S11310E06C2D22D15D7860231F430C9B02330C933B
S11310F04C2D4DD0712D4BD01DDC682D4FD06A2D59
S113110000D18AE0572D1CDC412D00D1C4E300DD61
S113111088E0002D56D10C9B013B0C93E3E0089B27
S1131120069310230C921F43D6E70C9B01330C93B8
S113113020231F43DCE7742D71D07A2D6FD0782DD6
S113114040DC2800583820283CD801F0C5F8FB01C1
S11311503B003B003B003B003B003B003B003B00B3
S1131160A5033B0088006B037000700070003B0017
S11311706B033B003B003B003B001B010E0365027D
S11311803B003B003C013B0038033B003B002B028F
S11311900C9B1D7860231F430C9B013309E00C9BBF
S11311A01D78682D07D180235B001F430C9B5D785D
S11311B002330C9304E00C9B01330C9380231F43F4
S11311C0782D9FDD0D9B3A00013B089301231A40C3
S11311D010921F4247D0079B079A0B990133D217ED
S11311E0914200DDA8E004D10A9A07998A4200D905
S11311F0A2E0079301240025079B089F2693DB1791
S11312002793013F00D49EE0089B089ADB43DB1739
S11312101340079AD318079365E040231F430C9BA0
S11312201D78BAE72B0002229343452BCAD18023B1
S1131230DB003B43FF0601D4062210920721069AE5
S11312401F0007328A4303CA002306920022049235
S113125005930023469047911A001193E5E1069BFC
S113126020CB0693AEE72024BF0500D51034079B9E
S11312702493DB172593089B013B37D50D9B002B4B
S113128055DD013B389300233993079B3E93DB17CD
S11312903F933E983F99389A399B12184B410D99C8
S11312A0002900DC01210798411807910B99994204
S11312B003DC18D10A99914215D900230D9A9A4258
S11312C001DD01339B1A0D9A023A9B180893B36807
S11312D0013BB360002B31DB33685A1C32601D7054
S11312E0109B002B86D1069B0893B6E60893259A9B
S11312F00B9B934204DC0CD10A9B249A934208D999
S1131300B368013BB360002B0CDB33685A1C3260BA
S11313101C700120249A259B002112184B41249211
S11313202593A8E731002000FFF7E0FBF1E7002355
S1131330002438933994A8E70793C8E731002800BC
S1131340FFF7D4FBCCE70B9B279A934204DC0DD127
S11313500A9B269A934209D9B368013BB360002BD8
S11313600BDB33685A1C326020221A70269A279BA2
S113137012196B412692279343E731002020FFF78F
S1131380B5FBF3E7069B1A1D7B0607D5069B079959
S11313901B681960C91759600692A4E7BB0604D5F7
S11313A0069B07991B681960F6E7FB0504D5069BA5
S11313B007991B681970EFE7069B07991B683F069E
S11313C0F1D51980E8E7069B04CB11923A93002AE1
S11313D001D18A4B1193119800F008FD0690FB0689
S11313E003D5109A904200DD06920D9B069A9B1A33
S11313F008933A0001231A400D921F4216D120246B
S1131400BF0500D51034079B089D1A93DB171B9367
S1131410013D36D5089B089ADB43DB171340079A36
S1131420D2180792089A013AD31A08930027012484
S11314300025079B2093DB172193069B9F4240DBEB
S1131440DB43069ADB171340079AD31807933A9B9A
S113145006930D9B002B00D145E701240025079B33
S1131460089F2893DB172993013F4CD5089B089AC2
S1131470DB43DB171340079AD31807933A9B069371
S113148031E70B9B1B9A934204DC0CD10A9B1A9AFA
S1131490934208D9B368013BB360002B0CDB33687B
S11314A05A1C32601C7001201A9A1B9B00211218CE
S11314B04B411A921B93ABE731002000FFF716FB58
S11314C0F1E70B9B219A934204DC0ED10A9B209AEC
S11314D093420AD9B368013BB360002B0DDB336838
S11314E05A1C3260119AD25D1A70209A219B1219EB
S11314F06B410137209221939FE7119B3100D85D06
S1131500FFF7F4FAF1E70B9B299A934204DC0DD11F
S11315100A9B289A934209D9B368013BB360002B14
S11315200BDB33685A1C326020221A70289A299BDC
S113153012196B412892299396E731002020FFF776
S1131540D5FAF3E740233A001A401F421DD0072280
S1131550069B0733934319000CC904920593069123
S113156080233A001A401F4215D06B461B8A04930D
S113157000230593224A3B0700D4224A224B1193AD
S1131580F90652D521490F404FE0069B059202CB44
S113159004910693E4E7FB05ECD56B461B7C0592AE
S11315A00493E7E740233A001A401F4218D0072269
S11315B0069B0733934319000CC9049205930691C3
S11315C080233A001A401F4210D06B461B8A0493B2
S11315D0002305930E4A3B0700D40A4A0D4BCEE77D
S11315E0069B059202CB04910693E9E7FB05F1D52E
S11315F06B461B7C05920493ECE7C0464C23000029
S1131600532300004723000061230000FFFDFFFF78
S11316105623000072230000069B04CB0492002290
S11316200693A74B0592A74A1193079B43924093B5
S1131630DB1701220A980B994193409B419CC01AE5
S1131640A1415242089009914492459255200022AA
S1131650109B48A9429350540132202AFBD1822284
S1131660D200174201D1012242926E2D00DD1BE10E
S1131670472D00DDB3E12A005123413AD340012232
S113168019001140134200D0EBE1109180233A007D
S1131690DB001A403A921F4200D1F4E10023429346
S11316A0449B002B01DD013B4293459B429A002B56
S11316B002DD013B9B184293109B429C43981C19EA
S11316C000F094FB0D9B1C1B231A0D9301233B403C
S11316D03B937D4B1F4200D102E200231493DB179E
S11316E01593439B5A1C43921D78002D00D0FAE1B8
S11316F03B9B149C002B15D120331193BF0501D5BE
S113170010331193E3170D9F1C941D93013F00D4D4
S113171009E20D9B0D9ADB43DB171340013AE418F1
S1131720D31A0D933A9B002B00D02DE2E3171294A9
S1131730002501241393429B013B4293002B00DBC1
S11317409AE201240025129B11931E93DB171F9329
S1131750109B5F1E002B00DDADE2109B109ADB4353
S1131760DB171340119A9C1811E240233A001A40E7
S11317701F4217D00722069B0733934319000CC955
S113178004920593069180233A001A401F420FD019
S11317906B461B8A0493002305934C4A3B075FD492
S11317A04B4A5DE0069B059202CB04910693EAE75F
S11317B0FB05F2D56B461B7C05920493EDE74023B1
S11317C03A001A401F4220D00722069B0733934356
S11317D019000CC904920593069180233A001A401B
S11317E01F4218D06B461B8A0493002305931021D3
S11317F03B0037480B40020011930F4200D114E71D
S1131800344B1F40002311930FE7069B059202CB34
S113181004910693E1E7FB05E9D56B461B7C059231
S11318200493E4E77B061DD50722069B0733934305
S113183019000CC90E920F9306913B0619D56B46FD
S113184038229B5E0E93DB170F930F9B002B18DA45
S11318500E980F99002342428B41049205931E4A2D
S113186000238CE6069B04CB0E92D2170F920693AC
S1131870E3E7FB05E9D56B4638229B181B785BB27E
S1131880E0E70E9A0F9B04920593144ABB07E7D432
S1131890134A7B07E4D483E710231F4200D0C6E435
S11318A01F43033B1093C2E428006F38092800D972
S11318B0E7E000F001FDD28BE6E6E6E617E6E68B0C
S11318C07223000056230000010200005923000087
S11318D047230000FFFDFFFF5B2300005D230000A2
S11318E05F23000000231093049B059A134300D147
S11318F0CCE6049C059D059B049ADB0752081A4319
S1131900059B32925B083393049A059B92089B07CC
S11319101A43059B34929B08359334983599329A2F
S1131920339B12184B4119071009084319092C90CD
S11319302D912C982D9912184B411906100A084321
S1131940190A2E902F912E982F9912184B41190491
S1131950100C0843190C30903191309831991218B9
S11319604B4100213C933D913C983D9912184B41C9
S11319705907DB082B93D0080023062208432A903A
S1131980A4185D412A982B990A22002300F068FCD0
S1131990241A8D412B0722091A432B0936923793B7
S11319A00A222A9B2B9C36983799C0186141282516
S11319B04243049B109C30339B1A3EAA5219135580
S11319C0230001330490059110938DE700220F202A
S11319D048A9049C059B1C4319D1109256E6280083
S11319E0583811284DD800F06FFCF1FF4C004C0022
S11319F04C004C004C004C004C004C003C004C0093
S1131A004C007DFF3C003C003C004C007DFF049CEE
S1131A10119B04401C5D059B54541B079C46049B6E
S1131A2001321D09059B1C0963462B43049305944D
S1131A30CFE704980840303098540598013345079F
S1131A400498C40805982543C00804950590049893
S1131A50059C2043EDD1109318E60023072148AAE2
S1131A60F5E745AB039344AB029342AB019343AB1D
S1131A70009328003B00589C48AA46A9A047109010
S1131A8004E60023E7E7429B109A9B1A00D412E66F
S1131A903A9B10E6099BAB4203DC0CD1089BA342A2
S1131AA009D9B368013BB360002B14DB33685A1CBB
S1131AB0326020221A7001220023A4185D410D9B7C
S1131AC05A1E131BE6D50D9B0D99DB43DB170B4008
S1131AD0D21A0D9202E631002020FFF707F8EAE758
S1131AE000240025EBE7099B159A934204DC0CD1F2
S1131AF0089B149A934208D9B368013BB360002B46
S1131B000CDB33685A1C32601D700121149B159C38
S1131B1000225B18544114931594E2E53100280027
S1131B20FEF7E4FFF1E7099B1D9A934204DC0DD113
S1131B30089B1C9A934209D9B368013BB360002BFC
S1131B400DDB33685A1C3260119A1A7001201C9AFA
S1131B501D9B002112184B411C921D93D6E53100A8
S1131B601198FEF7C3FFF1E748ABE85CE3173C28A4
S1131B7021D03E286AD116941793459B013B459387
S1131B80002B42DA169C0135109BAB42ECDC3B9BEC
S1131B90002B0CD0E3170D9D22942393013D00D418
S1131BA0A9E00D9B0D9ADB43DB171340E418079B58
S1131BB01B19FFF730FB18941993449B013B449382
S1131BC0002B01DA189CDEE7099B199A934204DC86
S1131BD00DD1089B189A934209D9B368013BB360AD
S1131BE0002B0DDB33685A1C326030221A7001213D
S1131BF0189B199C00225B18544118931994DCE734
S1131C0031003020FEF772FFF1E7099B179A9342E7
S1131C1004DC0DD1089B169A934209D9B368013BA1
S1131C20B360002B0DDB33685A1C326030221A700B
S1131C300121169B179C00225B185441169317949C
S1131C409BE731003020FEF751FFF1E7099A9342F8
S1131C5003DB0BD1089BA34208D9B368013BB360F3
S1131C60002B05DB33685A1C3260187001348AE794
S1131C703100FEF73BFFF9E7099B139A934204DC1A
S1131C800DD1089B129A934209D9B368013BB36002
S1131C90002B0BDB33685A1C326030221A70129A04
S1131CA0139B12196B411292139344E531003020B7
S1131CB0FEF71CFFF3E7099B1F9A934204DC0ED145
S1131CC0089B1E9A93420AD9B36848AA013BB85CA0
S1131CD0B360002B0BDB33685A1C326018701E9AF9
S1131CE01F9B12196B411E921F933B0031E531007B
S1131CF0FEF7FCFEF3E7099B239A934204DC0DD123
S1131D00089B229A934209D9B368013BB360002B24
S1131D100DDB33685A1C326020221A700120229A8B
S1131D20239B002112184B412292239336E7310062
S1131D302020FEF7DBFEF1E70EB430B594B017AB0C
S1131D4020CB04003C22002105A8049300F026FACD
S1131D500A2301220893104B009507930F4B52421C
S1131D600293049B05A801930B4B0594FFF720F9FC
S1131D70079B0400013B0793002B08DB0022059B13
S1131D801A70200014B030BC08BC03B0184705A971
S1131D900020FEF7ABFEF4E7FFFFFF7FD121000038
S1131DA0F0B5C56804000120AE070CD08020800087
S1131DB0824213D08020C000824205D0802040009F
S1131DC082420BD0FF38F0BD21000123243115439A
S1131DD0002021612160E361E560F4E7024F5E1EAB
S1131DE00120BE42F3D9EEE7FEFFFF00030003210A
S1131DF010B51A000B4219D1114C13681149591826
S1131E009943214219D0DCB2511C002C0BD0FF2481
S1131E102402911C234206D0FF2109040B40591EC1
S1131E208B41D318D91C0130081A05E001335C1E1C
S1131E302478002CDDD1101A10BD0432DDE7C04631
S1131E4080808080FFFEFEFE70B50D4D04002B687F
S1131E50002B01D10B4B2B6003232E6803349C43CE
S1131E603419200000F09AF8002802D12C603000C8
S1131E7070BD0C220126044B76421A60F7E7C04677
S1131E80D8E0FF1FE4E0FF1FE0E0FF1FF7B50D00FF
S1131E9001901000140000F033F82B78722B1CD042
S1131EA0772B1DD0612B26D1144A593B0220691C83
S1131EB0032784460426012508782B2813D062289A
S1131EC016D0E260019A62611B0704D50222002148
S1131ED02000FEF793FF2000FEBD00230122E5E76A
S1131EE004230222E2E760463A4303430131E3E775
S1131EF032432B43FAE70024EDE7C046028000009A
S1131F00F0B5C56804004769066989B0AB0720D0FD
S1131F102B0716D400F022F8380000F0E5F92B0561
S1131F2002D5300000F03EF90B4BAD0DAD059D42DE
S1131F3007D120226846216A00F0E5F9684600F0DE
S1131F4049F93C220021200000F028F9002009B0C2
S1131F50F0BD01204042FAE7000080ADF8B500284A
S1131F6012D000F027F805002800F8BD38006043BF
S1131F70084BC01800F01EF8002801D001256D425E
S1131F800134A642F2DCEFE7034B040005003C27D2
S1131F901E68F6E724E0FF1F2C230000030004481A
S1131FA0002803D000228342524110007047C046EB
S1131FB0E4E8FF1FC36870B503221E000400164046
S1131FC0134211D09B0611D5856AFEF76FFDE368B5
S1131FD0094A20001340E360FEF730FE00220600A9
S1131FE029002000FEF70AFF300070BD83690568F0
S1131FF0ED180369ED1AEAE7FFCFFFFF80B500AFE4
S1132000FEF76AFBC046BD4680BD80B582B000AF16
S1132010786006E07B685A1C7A601B781800FEF72B
S113202087FB7B681B78002BF4D1C046C046BD46B5
S113203002B080BD80B500AFFEF74AFAC046BD4687
S113204080BD80B586B000AFF860B9607A600023C7
S11320507B610DE07B699A00FB68D3181A007B69E9
S11320609B00B968CB1812681A607B6901337B61E5
S11320707A697B689A42EDD3C046C046BD4606B035
S113208080BD80B582B000AF786008001100FB1CF1
S1132090021C1A70BB1C0A1C1A70BB1C1B78002B78
S11320A00BD17B685B69FA1C1278012191400A000C
S11320B0D2431A407B685A6109E07B685B69FA1C69
S11320C01278012191400A001A437B685A61C04684
S11320D0BD4602B080BD80B582B000AF7860080014
S11320E01100FB1C021C1A70BB1C0A1C1A70BB1CBE
S11320F01B78002B0AD07B681B68FA1C127801211C
S113210091400A001A437B681A600AE07B681B68E6
S1132110FA1C1278012191400A00D2431A407B68CC
S11321201A60C046BD4602B080BD80B582B000AF23
S113213078600A00FB1C1A707B68DB68FA1C127852
S1132140012191400A001A437B68DA60C046BD460B
S113215002B080BD80B582B000AF78607A68962303
S11321609B019A4205D07A68E1235B029A4202D02D
S113217003E0102302E0112300E000231800BD4611
S113218002B080BD80B500AFC046BD4680BD10B56D
S1132190FEF7D0FEFEF71AFC10BDFEE710B500F006
S11321A076F810BD10B5002811D080210C384905EF
S11321B001608268002A0AD013688B4207D1436801
S11321C0546803331B19436093688360F1E710BDBF
S11321D00020704710B50400FFF708FE010020003E
S11321E000F08BF810BD03000B4321D4002931D03B
S11321F00122D207030901E0090112099942FBD91E
S1132200430801E0490052089942FBD900E049081B
S1132210401A07D35241FAD3014610467047490881
S11322204018F7D29218FAD3401801461046704766
S1132230CB0F00D04942021000D54042534008B5AC
S1132240FFF7D4FF0CBC521000D34042002A00D543
S113225049421847F446002000F001F860477047EF
S113226010B543435143C918040C130C5C430919BA
S113227092B2040C544380B2434350432204240CCE
S1132280801861411A041B0C8018594110BD844602
S1132290043A09D3830707D109060B0A19430B0C27
S11322A01943043A02C0FCD2043203D00170013055
S11322B0013AFBD1604670478C4671460139095C8E
S11322C049008E44614670478C46411E7144095E44
S11322D049008E44614670478C46411E7144095A38
S11322E049008E44614670470120404270470120F6
S11322F040427047012040427047012040427047ED
S1132300012040427047012040427047100070474E
S11323102558255800FFFFFF78563412F0DEBC9A8A
S113232048656C6C6F20576F726C6400030000008A
S11323302A2A2A205F437379735F616C6C6F632070
S11323406661696C65640A0072007700286E756CBA
S11323506C290030580030780030002D002B00200C
S1132360003031323334353637383941424344450D
S1132370460030313233343536373839616263647C
S1072380656600FF8B
S90300D527
