S02B00002F686F6D652F646F6E702F4E58502F4D43555870726573736F5F31312E392E315F323137302F776F2A
S113000000600020D50000004301000071120000D0
S113001000000000000000000000000000000000DC
S11300200000000000000000000000004701000084
S11300300000000000000000490100004B01000026
S11300404F010000570100005F010000670100003C
S11300506F010000770100007F01000087010000AC
S11300608F010000970100009F010000A70100001C
S1130070ED100000B7010000BF010000F10D000009
S1130080CF010000D7010000DF010000E7010000FC
S1130090EF010000F7010000410F0000070200001B
S11300A00F020000170200001F02000027020000D8
S11300B02F020000370200003F0200000B2C00005A
S11300C07C30000000E0FF1F0800000008E0FF1F74
S11300D0F801000010B572B601F01CF90D4B07E0F1
S11300E0186859681C000C349A6800F019F8230049
S11300F0094A9342F4D306E018681C00083459688E
S113010000F017F82300054A9342F5D362B602F0D3
S11301103AFEFEE7C0000000CC000000D40000005E
S113012010B5002302E010C810C104339342FAD37F
S113013010BD002302E0002204C004338B42FAD332
S11301407047FEE7FEE7FEE7FEE7FEE7FEE710B5D1
S1130150FFF7FCFF10BD10B5FFF7F8FF10BD10B599
S1130160FFF7F4FF10BD10B5FFF7F0FF10BD10B599
S1130170FFF7ECFF10BD10B5FFF7E8FF10BD10B599
S1130180FFF7E4FF10BD10B5FFF7E0FF10BD10B599
S1130190FFF7DCFF10BD10B5FFF7D8FF10BD10B599
S11301A0FFF7D4FF10BD10B5FFF7D0FF10BD10B599
S11301B001F07AF810BD10B501F088F810BD10B543
S11301C001F096F810BD10B5FFF7C0FF10BD10B5D3
S11301D0FFF7BCFF10BD10B5FFF7B8FF10BD10B599
S11301E0FFF7B4FF10BD10B5FFF7B0FF10BD10B599
S11301F0FFF7ACFF10BD10B5FFF7A8FF10BD10B599
S1130200FFF7A4FF10BD10B5FFF7A0FF10BD10B598
S1130210FFF79CFF10BD10B5FFF798FF10BD10B598
S1130220FFF794FF10BD10B5FFF790FF10BD10B598
S1130230FFF78CFF10BD10B5FFF788FF10BD10B598
S1130240FFF784FF10BD10B5FFF780FF10BDFFFF5F
S1130250FFFFFFFFFFFFFFFFFFFFFFFFFFFFFFFFAA
S1130260FFFFFFFFFFFFFFFFFFFFFFFFFFFFFFFF9A
S1130270FFFFFFFFFFFFFFFFFFFFFFFFFFFFFFFF8A
S1130280FFFFFFFFFFFFFFFFFFFFFFFFFFFFFFFF7A
S1130290FFFFFFFFFFFFFFFFFFFFFFFFFFFFFFFF6A
S11302A0FFFFFFFFFFFFFFFFFFFFFFFFFFFFFFFF5A
S11302B0FFFFFFFFFFFFFFFFFFFFFFFFFFFFFFFF4A
S11302C0FFFFFFFFFFFFFFFFFFFFFFFFFFFFFFFF3A
S11302D0FFFFFFFFFFFFFFFFFFFFFFFFFFFFFFFF2A
S11302E0FFFFFFFFFFFFFFFFFFFFFFFFFFFFFFFF1A
S11302F0FFFFFFFFFFFFFFFFFFFFFFFFFFFFFFFF0A
S1130300FFFFFFFFFFFFFFFFFFFFFFFFFFFFFFFFF9
S1130310FFFFFFFFFFFFFFFFFFFFFFFFFFFFFFFFE9
S1130320FFFFFFFFFFFFFFFFFFFFFFFFFFFFFFFFD9
S1130330FFFFFFFFFFFFFFFFFFFFFFFFFFFFFFFFC9
S1130340FFFFFFFFFFFFFFFFFFFFFFFFFFFFFFFFB9
S1130350FFFFFFFFFFFFFFFFFFFFFFFFFFFFFFFFA9
S1130360FFFFFFFFFFFFFFFFFFFFFFFFFFFFFFFF99
S1130370FFFFFFFFFFFFFFFFFFFFFFFFFFFFFFFF89
S1130380FFFFFFFFFFFFFFFFFFFFFFFFFFFFFFFF79
S1130390FFFFFFFFFFFFFFFFFFFFFFFFFFFFFFFF69
S11303A0FFFFFFFFFFFFFFFFFFFFFFFFFFFFFFFF59
S11303B0FFFFFFFFFFFFFFFFFFFFFFFFFFFFFFFF49
S11303C0FFFFFFFFFFFFFFFFFFFFFFFFFFFFFFFF39
S11303D0FFFFFFFFFFFFFFFFFFFFFFFFFFFFFFFF29
S11303E0FFFFFFFFFFFFFFFFFFFFFFFFFFFFFFFF19
S11303F0FFFFFFFFFFFFFFFFFFFFFFFFFFFFFFFF09
S1130400FFFFFFFFFFFFFFFFFFFFFFFFFEFFFFFFF9
S113041080B500AF00F04EFC02F0F0FB074B180073
S113042000F08AFC064B180000F006FE054B18008D
S113043000F03EF9C046BD4680BDC0468C2F00008A
S1130440F9050000BD04000090B583B000AF00F0D2
S113045063FC031E07D0174B180000F06DFC01204D
S113046000F016F91FE0144B180000F065FCFC1DA9
S113047000F08CF803002370FB1D1B78022B0DD0B9
S113048010DC002B02D0012B04D00BE0032000F081
S1130490FFF808E0022000F0FBF804E0012000F07F
S11304A0F7F800E0C04600F0CBF8C046BD4603B004
S11304B090BDC0469C2F0000B02F000080B500AF57
S11304C0034B180000F038FCC046BD4680BDC04652
S11304D0CC2F000090B587B000AF78607B68002B0C
S11304E032D00823FB18180008231A00002102F058
S11304F055FC7B681B78002B02D1FC239B0200E097
S1130500134B7B617A69FC239B029A4202D0FC2341
S11305109B0200E00E4B3B61082439193B6902221F
S1130520180002F079FBFC239B02180000F06EFC1B
S113053079687B690222180000F092FC39193B6942
S11305400222180000F08CFCC046BD4607B090BDE6
S113055008F0030080B584B000AF78607B68002B9E
S11305600ED07B681B78002B02D1FC239B0200E099
S1130570054BFB607968FB680222180002F04CFB13
S1130580C046BD4604B080BD08F00300B0B584B0D9
S113059000AF0F243B1900221A700E257B1900228C
S11305A01A703B1D180008231A00002102F0F6FB04
S11305B0391DFC239B020222180002F02DFB3B197B
S11305C03A1D52781A703B1D0A480222190002F0A3
S11305D023FB7B193A1D52781A707B193A191B7840
S11305E012789A429B415B42DBB21800BD4604B0CC
S11305F0B0BDC04608F0030080B582B000AF020071
S1130600FB1D1A7002F046F9031E10D10A4B1B8819
S1130610FF2B0CD8084B1B881900084BFA1D1278C5
S11306205A54054B1B8801339AB2034B1A80C046B7
S1130630BD4602B080BDC046F8E1FF1F08E0FF1FC1
S113064080B500AF114B1B78032B12D017DC022BA3
S11306500AD014DC002B14D0012B00D00FE000F0E2
S1130660C1F80A4B02221A7000F050F8074B03221B
S11306701A7000F011F9054B00221A7002E0C0460E
S113068000E0C046C046BD4680BDC046FAE1FF1F3B
S113069080B582B000AF0200FB1D1A70034BFA1D37
S11306A012781A70C046BD4602B080BDFAE1FF1F41
S11306B080B582B000AF7860034B7A681A60C04698
S11306C0BD4602B080BDC04608E1FF1F80B584B0BE
S11306D000AFF860B960BB1D1A80FB68A022D2018C
S11306E09818BB1D1B889B089AB2BB68190002F0BE
S11306F0D7F8BB1D1A88044B1B68D218024B1A602A
S1130700C046BD4604B080BD0CE1FF1F90B5C7B024
S113071000AF7B1DFF33180008231A00002102F0EC
S11307203DFB7B1DFF331800FFF714FF00238A22D3
S11307305200BA1813602A4B8C2252009B18DB1902
S1130740180080235B001A00002102F027FB38E028
S11307507B1DFF335A688A235B00FB181B68D31A7E
S113076088225200B9180B60BB181B68402B00D9B3
S11307704023872149007A1813808A235B00FB18E1
S11307801B68A022D20198180C007B181A883B1D04
S1130790190002F041FA3B191A88391DA0239B0164
S11307A0180002F07DF888235B00FB181B68402BBF
S11307B000D940238A2149007A181268D3187A187C
S11307C013607B1DFF335B688A225200BA181268DB
S11307D09A42BDD3C046C046BD4647B090BDC04650
S11307E0ECFEFFFFB0B584B000AF0F23FB1801226D
S11307F01A7023E000F07AF8031E1FD0204B1B88E8
S11308001A00204BD018204B1A881D4B1B88D31A72
S11308109BB201339BB20F257C19190000F070F8CC
S1130820030023707B191B78012B05D002F028F8F4
S1130830164B180000F080FA00F03CF800F020F9A4
S1130840031ED7D03B1D01221A70114B1B785A1C72
S1130850D1B20F4A11703A1D53703B1D01225A80C8
S11308600C4B1A683B1D5A603B1D1800FFF732FE03
S1130870084B00221A60C046BD4604B0B0BDC04655
S113088000E0FF1F08E0FF1F02E0FF1FE42F00004D
S1130890FBE1FF1F0CE1FF1F80B500AF044B1B6899
S11308A0002B02D0024B1B689847C046BD4680BD52
S11308B008E1FF1F80B500AF084B00221A80084BE7
S11308C000221A70074B012252421A80064B012261
S11308D052421A80C046BD4680BDC046F8E1FF1FA3
S11308E004E0FF1F00E0FF1F02E0FF1F80B500AF20
S11308F0024B1B781800BD4680BDC04604E0FF1FB4
S1130900B0B588B000AF78600A00BB1C1A80002321
S11309103B617B681B78532B01D00223AAE07B68E0
S113092001331B781A257C191022BA1811001800FB
S113093000F0B0F8030023707B191B78002B01D161
S1130940032397E07B689A1CBB1C1B88023B9BB269
S11309501900100001F0F0FF03001A0018217B18A1
S11309601A807B181B88002B01D1022382E07B684C
S113097002331B781A001823FB181B88013B9A4288
S113098001D0042376E018217B181B8801337A6890
S1130990D3181C787B689A1C7B181B88DBB2013B3C
S11309A0DBB21900100002F072F803009C4201D07F
S11309B005235FE01A23FB181B78032B22D10023A5
S11309C0FB602E4B18787B68033317257C190C22A7
S11309D0BA18190002F08CF803002370F8687B1928
S11309E01B7803331A007B6899187B191B789BB218
S11309F01822BA181288D31A9BB2023B9BB21A006F
S1130A00FFF764FE1A23FB181B78042B31D1002353
S1130A10FB611B23FB1800221A701BE01B203B18F0
S1130A201B7803331A007B689B181B781900182362
S1130A30FB181B88DA1E3B181B78D31ADB0099407D
S1130A400B001A00FB691343FB613B181A783B182F
S1130A5001321A701B23FB181A781823FB181B8801
S1130A60023B9A42DADB3B69FA699A4201D00623D7
S1130A7000E001231800BD4608B0B0BDFDE1FF1F32
S1130A8080B500AF024B1B781800BD4680BDC04640
S1130A90FCE1FF1F80B584B000AF02003960FB1D8C
S1130AA01A700F23FB1800221A70FB1D1B78303BB1
S1130AB0092B00D9D0E09A00794BD3181B689F46C4
S1130AC0784B00221A60784B00221A70774B1B78FF
S1130AD001229A429B415B42DAB2744B197804209A
S1130AE0002388425B41DBB21340DBB2002B01D010
S1130AF00023D0E06D4B02221A706C4B1B78CAE0C5
S1130B006A4B1B78032B01D00023C4E0674B0422FB
S1130B101A70644B1A683B681A60644B1B78BAE01D
S1130B20624B1B78032B01D90023B4E05D4B1B6897
S1130B305A1C5C4B1A605D4B03221A700F23FB187E
S1130B4002221A7093E0594B1B78033B5A1E9341BF
S1130B50DBB2564A1278043A511E8A41D2B213408B
S1130B60DBB2002B01D0002395E00F23FB180222F7
S1130B701A704C4B1A683B681A604C4B05221A7069
S1130B804B4B01221A7072E0484B1B78032B01D99E
S1130B90002380E0434B1B685A1C424B1A60434BB2
S1130BA003221A700F23FB1803221A705FE03F4BD5
S1130BB01B78033B5A1E9341DBB23C4A1278043A39
S1130BC0511E8A41D2B21340DBB2002B01D0002364
S1130BD061E00F23FB1803221A70324B1A683B683A
S1130BE01A60324B05221A70314B01221A703EE012
S1130BF02E4B1B78032B01D900234CE0294B1B6897
S1130C005A1C284B1A60294B03221A700F23FB1815
S1130C1004221A702BE0254B1B78033B5A1E934188
S1130C20DBB2224A1278043A511E8A41D2B21340EE
S1130C30DBB2002B01D000232DE00F23FB1804228C
S1130C401A70184B1A683B681A60184B05221A7000
S1130C50174B01221A700AE0134B00221A70114B31
S1130C6000221A60114B06221A70002313E00E4B67
S1130C701B78002B04D10C4B0F22BA1812781A706F
S1130C80094B1B780F22BA1812789A4202D1074BEB
S1130C901B7800E000231800BD4604B080BDC046A8
S1130CA0FC2F000010E1FF1FFDE1FF1F05E0FF1F07
S1130CB0FCE1FF1F80B500AF80231B01180000F08A
S1130CC02BF9134B01220321180000F04FF9104BAC
S1130CD001220C21180000F049F90D4B03220321D5
S1130CE0180002F00FF80A4B03220C21180002F03E
S1130CF009F8084B00220321180001F0ADFF054B51
S1130D0000220C21180001F0A7FFC046BD4680BD9B
S1130D1000B0044080F00F4080B500AF054B0321C4
S1130D20180001F0C3FF03005A425341DBB218001C
S1130D30BD4680BD80F00F400FB490B5C3B000AF86
S1130D40244B842252009B18DB1900221A600433BE
S1130D50FC220021180002F021F88A235B000821FC
S1130D605B18DB193B603A6888235B005B18DB196E
S1130D7019683B1D180001F021FC0823FF33FB1800
S1130D8000221A7011E00824FF343B191B78114A21
S1130D90842149005218D219D35C180000F05AF982
S1130DA03B191A783B1901321A700823FF33FB18D8
S1130DB01B78084A842149005218D219D35C002BAD
S1130DC0E1D1C046C046BD4643B090BC08BC04B0A7
S1130DD01847C046FCFEFFFF80B500AF034B05215A
S1130DE0180001F07AFFC046BD4680BDC0F00F4038
S1130DF080B500AF044B1B68002B02D0024B1B686C
S1130E009847C046BD4680BD14E1FF1F80B582B03F
S1130E1000AF7860114B30221A70104B0922DA713E
S1130E207B681A0C0D4BD2B29A717B681A0A0B4B71
S1130E30D2B25A71094B7A68D2B21A71074B802226
S1130E401A70C046054B1B78DBB25BB2002BF9DA93
S1130E50C046C046BD4602B080BDC0460000024048
S1130E6080B586B000AFF860B9607A6000237B611A
S1130E7046E0284B30221A70264B0622DA71FB68B2
S1130E801A0C244BD2B29A71FB681A0A214BD2B2C3
S1130E905A71204BFA68D2B21A717B699B00BA6806
S1130EA0D3181B681A0E1B4BD2B2DA727B699B00F3
S1130EB0BA68D3181B681A0C164BD2B29A727B69A3
S1130EC09B00BA68D3181B681A0A124BD2B25A7222
S1130ED07B699B00BA68D3181A680E4BD2B21A7297
S1130EE00C4B80221A70C0460A4B1B78DBB25BB2F3
S1130EF0002BF9DAFB680433FB607B6901337B6107
S1130F007A697B689A42B4D3C046C046BD4606B0EF
S1130F1080BDC0460000024080B582B000AF78605A
S1130F20054A064BD25804497B681343034A8B5045
S1130F30C046BD4602B080BD0070044038100000B9
S1130F4080B500AF074A86235B000121D150064BD0
S1130F501B68002B02D0044B1B689847C046BD4653
S1130F6080BDC0460070034018E1FF1F80B584B007
S1130F7000AFF860B960FB1D1A70FB68BA68920094
S1130F80D358094A1A40FB1D1B781902E023DB00E1
S1130F900B401A431100FB68BA689200D150C04656
S1130FA0BD4604B080BDC046FFF8FFFF80B582B0E7
S1130FB000AF0200FB1D1A70FB1D1B787F2B09D8A4
S1130FC0FB1D1B781A001F231A40044B012191407A
S1130FD00A001A60C046BD4602B080BD00E100E0D0
S1130FE080B500AF00F0C6F8002000F05DF8E12302
S1130FF05B02180000F0F6F880239B001800FFF74E
S11310008BFF0C4B022201211800FFF7AFFF094BA5
S1131010022202211800FFF7A9FF012000F044F882
S1131020012000F075F80C20FFF7C0FFC046BD4654
S113103080BDC0460090044080B582B000AF7860A7
S1131040034B7A681A60C046BD4602B080BDC046F4
S11310501CE1FF1F80B582B000AF0200FB1D1A70B7
S1131060C046074B1B79DBB25BB2002BF9DA044AAA
S1131070FB1D1B78D371C046BD4602B080BDC0467F
S113108000A0064080B500AFC046064B1B79DBB21A
S11310901A0020231340F8D0024BDB79DBB218008E
S11310A0BD4680BD00A0064080B582B000AF0200FE
S11310B0FB1D1A70FB1D1B78002B08D00A4BDB7834
S11310C0DBB2094A0C210B43DBB2D37007E0064BB9
S11310D0DB78DBB2044A0C218B43DBB2D370C0460D
S11310E0BD4602B080BDC04600A00640B0B500AF0A
S11310F0064B1B68002B06D0044B1C68FFF7C2FF8D
S113110003001800A047C046BD46B0BD1CE1FF1F48
S113111080B582B000AF0200FB1D1A70FB1D1B7866
S1131120002B10D0124BDB78DBB2114A20210B4389
S1131130DBB2D3700E4B9B79DBB20D4A08210B4313
S1131140DBB293710FE00A4BDB78DBB2084A202153
S11311508B43DBB2D370064B9B79DBB2044A082184
S11311608B43DBB29371C046BD4602B080BDC0461E
S113117000A0064080B500AF164B1B78DBB2154AC1
S113118002210B43DBB21370134A144BD358124998
S11311908022D2001343114A8B500F4A104BD3586C
S11311A00D49C022120513430D4A8B50094B1B7A7B
S11311B0DBB2084A0E218B43DBB21372054B5B781A
S11311C0DBB2044A01210B43DBB25370C046BD4677
S11311D080BDC0460040064000700440341000004A
S11311E00410000090B585B000AF78601E4B9B7A68
S11311F0DBB21F229343DCB27B68180001F09EFD32
S11312000300013BDBB2184A2343DBB293727B68D1
S1131210180001F093FD03001A007B685343190082
S1131220124801F00BFE03001A000E203B181A802E
S11312300D4B1B78DBB21F229343DAB23B181B8899
S11312401B0A9BB2DBB21F210B40DBB206491343DE
S1131250DBB20B70044A3B181B88DBB25370C046E8
S1131260BD4605B090BDC04600A0064000093D0043
S113127004207146084202D0EFF3098001E0EFF345
S1131280088081690A88074B9A4200D0FEE7023140
S113129081610168012901D0002100E02021016061
S11312A07047C046ABBE000080B500AF044B1A685F
S11312B0044B1B68044819009047C046BD4680BDD6
S11312C024E1FF1F20E1FF1F00A0064080B500AF0E
S11312D0044B1A68044B5B68044819009047C046E5
S11312E0BD4680BD34E1FF1F28E1FF1F00B006406A
S11312F080B500AF044B1A68044B9B68044819007E
S11313009047C046BD4680BD34E1FF1F28E1FF1F62
S113131000C0064080B500AF044A88235B01002169
S1131320D15001F02BFDC046BD4680BD0070044085
S11313302022C36810B59343C3608269836A0400A2
S11313409A420CD000F0BCF8E268074B1A40102314
S11313501343E360A36AA3612369E3622360E36840
S1131360024A1340E36010BDEFCFFFFFBFBFFFFF92
S1131370F8B5504ACB6805001A400C00CA609B06B9
S113138002D50800FFF7D4FFA268E668531C0FDA01
S1131390B3050DD402235B429B1AA36090235B0226
S11313A03343E36023685A1C22601D70E8B20AE0EC
S11313B0414A3240022A07D00023A36080333343DA
S11313C0E36001204042F8BD80213C4B09023340D8
S11313D08B420AD10021200000F052F9E3689B06F9
S11313E002D52000FFF7A4FFE6689023F0225B02F9
S11313F033431201E360164210D1606901F0B8FD75
S1131400002821D073051FD52300243323612360D2
S11314100123E36192235B023343E36090210901DA
S1131420226826690B4225D0E36A9A4200D9130048
S1131430991BB34217D1731CE3622360E3695A1EFC
S1131440A26023633570B1E780277F00380000F085
S113145007F99423E2685B0233431A432061206056
S1131460E761E260DAE72200300000F057F8002874
S1131470E1D0A6E7511CE8B221601070E26A21684D
S11314808A4200D91100E269891B22635B0504D4F6
S11314900A2802D08A4200DD88E7002322003000B7
S11314A0E6622660A36000F039F8002800D088E7DF
S11314B07CE7C046FFFFF7FF8A10000010A0000081
S11314C070B50400134AE36805691A400168C06AEC
S11314D0E26082221A40022A02D00120404270BDFA
S11314E0DB030CD5814200D201008D4209D10023D7
S11314F0094AA360E368E56213402560E3600020C5
S1131500EDE722002800491B00F008F80028EED07F
S1131510E3E7C046FFFFF7FFFFFFFEFFF7B5D5681F
S11315200F00140056690190EB0205D5102330001A
S11315301D4301F01AFDA061104B1D420FD0300075
S1131540A16901F01BFD002806DA80230120E2686E
S113155040421343E3600FE0094B1D40E5603A004D
S11315603000019901F010FD4300A2695B08FB1AE9
S1131570D318A3610028E8D1FEBDC04610000200C4
S1131580EFFFFDFFF8B50027344EC21C3468950800
S1131590B84212D080235B059C46002C0FD10C303E
S11315A001F094F8431C08D080239B050360456038
S11315B08460002F50D130603EE00020F8BD2368E5
S11315C063452DD1A1686368002909D00F68674578
S11315D01ED14F680333FB1863608B68A360F1E787
S11315E0AB4220DA2E000A36B3422AD98020800585
S11315F0206003262000B2430C3082186560A2608C
S113160080245B1B6405033B146053609160D5E741
S1131610AB4213DBEF1CBB420ADD07379F42E5D325
S11316202700A468B9E7EE1C9E4201DA0736DBE71F
S113163080239B05236020000C30BFE72F000A376E
S1131640ECE79B00C01A01F041F80130B5D08023CB
S11316509B0523606560EEE7B860EDE7F0E1FF1FEE
S113166010B5FFF78FFF041E05D11722034901F0BF
S11316708BFC01F08EFB200010BDC046283000001A
S1131680F7B54369C6680193364B04000D00009218
S11316901E420BD0019801F06BFC071E06D1009B83
S11316A0012B06D0022B2DD0002B06D002273800A8
S11316B0FEBD200000F05AF82D18002DF6DBB3040F
S11316C004D52368E26A9A4200D2E362A369AB427A
S11316D00EDCE16A22688A4200D20A002169D0182D
S11316E00091401AA84203DB206B1918A94228DC98
S11316F020231E430023A562A36063601A4B1E408F
S1131700E660D4E7019801F030FCE268002804DACE
S1131710802313430127E360C9E7E16A2368994200
S113172000D90B00A1695B1821695B1A920603D5E5
S1131730A26A934200DA1300834200DA0300ED1830
S1131740BBE7EB1AB50701D5181AA060F00703D55B
S11317500099521A9A1A6260009AD11820232160C3
S11317609E43CBE703001000BFCFF7FFC168020020
S11317708B0705D1212201200E4B40421A6070478D
S113178020230B4009030AD5002B02D0806A0138BC
S1131790F5E793690068C0181369C01AF7E7002BCE
S11317A001D0806AEBE70368816900695B18181A45
S11317B0E5E7C046F4E1FF1F70B5184C1849220054
S11317C0002000F0A5FF802380225B000021200080
S11317D0D20000F027FF134C134D220029000120F2
S11317E000F096FF802380225B0000212000D200BD
S11317F000F018FF0D4B1B68022B0DDD0C4C29006B
S11318002200022000F084FF802380220021200097
S11318105B00D20000F006FF70BDC04638E1FF1F38
S11318204030000074E1FF1F42300000243000000B
S1131830B0E1FF1FF0B5D1B00A92579A06000892A2
S113184000220B93569B079218785A1C0C9200287E
S113185002D1079851B0F0BD252833D100270C9A46
S113186011000D7801322B2D60D048D8202D5FD087
S1131870232D5FD02A2D46D1089B01CB0D90002843
S113188003DA40420D9001204740023115780C9153
S11318900893089B0693002310932E2D5ED10C9B76
S11318A01D782A2D4BD00A20013329003039CCB2BF
S11318B01A00092C75D8109C1D7844430A191092FB
S11318C00133F2E7079B0B9ADB179A4209DC03D139
S11318D00A9B079A934204D8079B013307930C9BF6
S11318E0B2E7B368013BB360002B04DB33685A1CD6
S11318F032601870F0E73100FFF73AFDECE72D2D68
S113190011D0302D18D000230A200D932B00303B2A
S1131910D9B20C920929BCD80D99157841435B18AA
S11319200D930132F2E701231F4399E70223FBE7FA
S11319300423F9E70823F7E780239B00F4E7069BD9
S113194004330693089B1B6810930C9B5D789A1CC8
S1131950109B002B27DA00230C9210936C2D09D1D5
S11319600C9B1D786C2D22D15D7860231F430C9B4A
S113197002330C934C2D4DD0712D4BD01DDC682DB2
S11319804FD06A2D00D18AE0572D1CDC412D00D1A7
S1131990C4E300DD88E0002D56D10C9B013B0C9381
S11319A0E3E0089B069310230C921F43D6E70C9B9D
S11319B001330C9320231F43DCE7742D71D07A2D5F
S11319C06FD0782D40DC2800583820283CD801F00E
S11319D0C1FAFB013B003B003B003B003B003B00EA
S11319E03B003B00A5033B0088006B0370007000C4
S11319F070003B006B033B003B003B003B001B01C2
S1131A000E0365023B003B003C013B0038033B00F6
S1131A103B002B020C9B1D7860231F430C9B01335E
S1131A2009E00C9B1D78682D07D180235B001F43C0
S1131A300C9B5D7802330C9304E00C9B01330C93F4
S1131A4080231F43782D9FDD0D9B3A00013B0893B3
S1131A5001231A4010921F4247D0079B079A0B9903
S1131A600133D217914200DDA8E004D10A9A079904
S1131A708A4200D9A2E0079301240025079B089F0E
S1131A802693DB172793013F00D49EE0089B089A16
S1131A90DB43DB171340079AD318079365E0402311
S1131AA01F430C9B1D78BAE72B0002229343452B5E
S1131AB0CAD18023DB003B43FF0601D406221092E7
S1131AC00721069A1F0007328A4303CA002306929D
S1131AD00022049205930023469047911A00119323
S1131AE0E5E1069B20CB0693AEE72024BF0500D595
S1131AF01034079B2493DB172593089B013B37D5B0
S1131B000D9B002B55DD013B389300233993079B34
S1131B103E93DB173F933E983F99389A399B1218AE
S1131B204B410D99002900DC0121079841180791C8
S1131B300B99994203DC18D10A99914215D90023D3
S1131B400D9A9A4201DD01339B1A0D9A023A9B18B1
S1131B500893B368013BB360002B31DB33685A1C34
S1131B6032601D70109B002B86D1069B0893B6E64D
S1131B700893259A0B9B934204DC0CD10A9B249A6C
S1131B80934208D9B368013BB360002B0CDB336884
S1131B905A1C32601C700120249A259B00211218C3
S1131BA04B4124922593A8E731002000FFF7E0FB86
S1131BB0F1E70023002438933994A8E70793C8E792
S1131BC031002800FFF7D4FBCCE70B9B279A934204
S1131BD004DC0DD10A9B269A934209D9B368013BD0
S1131BE0B360002B0BDB33685A1C326020221A705E
S1131BF0269A279B12196B412692279343E73100BB
S1131C002020FFF7B5FBF3E7069B1A1D7B0607D5DB
S1131C10069B07991B681960C91759600692A4E7C7
S1131C20BB0604D5069B07991B681960F6E7FB05FC
S1131C3004D5069B07991B681970EFE7069B079963
S1131C401B683F06F1D51980E8E7069B04CB119287
S1131C503A93002A01D18A4B1193119800F008FDA0
S1131C600690FB0603D5109A904200DD06920D9B68
S1131C70069A9B1A08933A0001231A400D921F42B8
S1131C8016D12024BF0500D51034079B089D1A9354
S1131C90DB171B93013D36D5089B089ADB43DB1702
S1131CA01340079AD2180792089A013AD31A089354
S1131CB0002701240025079B2093DB172193069B13
S1131CC09F4240DBDB43069ADB171340079AD31885
S1131CD007933A9B06930D9B002B00D145E7012403
S1131CE00025079B089F2893DB172993013F4CD5B8
S1131CF0089B089ADB43DB171340079AD318079312
S1131D003A9B069331E70B9B1B9A934204DC0CD15C
S1131D100A9B1A9A934208D9B368013BB360002B1B
S1131D200CDB33685A1C32601C7001201A9A1B9B0E
S1131D30002112184B411A921B93ABE7310020008B
S1131D40FFF716FBF1E70B9B219A934204DC0ED1BB
S1131D500A9B209A93420AD9B368013BB360002BD3
S1131D600DDB33685A1C3260119AD25D1A70209AC6
S1131D70219B12196B410137209221939FE7119BFC
S1131D803100D85DFFF7F4FAF1E70B9B299A9342EF
S1131D9004DC0DD10A9B289A934209D9B368013B0C
S1131DA0B360002B0BDB33685A1C326020221A709C
S1131DB0289A299B12196B412892299396E731009E
S1131DC02020FFF7D5FAF3E740233A001A401F42D8
S1131DD01DD00722069B0733934319000CC90492B4
S1131DE00593069180233A001A401F4215D06B4692
S1131DF01B8A049300230593224A3B0700D4224AFA
S1131E00224B1193F90652D521490F404FE0069B0E
S1131E10059202CB04910693E4E7FB05ECD56B46EF
S1131E201B7C05920493E7E740233A001A401F42C3
S1131E3018D00722069B0733934319000CC9049258
S1131E400593069180233A001A401F4210D06B4636
S1131E501B8A0493002305930E4A3B0700D40A4AC5
S1131E600D4BCEE7069B059202CB04910693E9E75E
S1131E70FB05F1D56B461B7C05920493ECE7C04649
S1131E80443000004B3000003F3000005930000067
S1131E90FFFDFFFF4E3000006A300000069B04CBBC
S1131EA0049200220693A74B0592A74A1193079B1D
S1131EB043924093DB1701220A980B994193409B6C
S1131EC0419CC01AA1415242089009914492459202
S1131ED055200022109B48A9429350540132202AD5
S1131EE0FBD18222D200174201D1012242926E2DEF
S1131EF000DD1BE1472D00DDB3E12A005123413A07
S1131F00D340012219001140134200D0EBE110919B
S1131F1080233A00DB001A403A921F4200D1F4E1D8
S1131F2000234293449B002B01DD013B4293459BDC
S1131F30429A002B02DD013B9B184293109B429C6A
S1131F4043981C1900F094FB0D9B1C1B231A0D9342
S1131F5001233B403B937D4B1F4200D102E200230F
S1131F601493DB171593439B5A1C43921D78002D41
S1131F7000D0FAE13B9B149C002B15D12033119324
S1131F80BF0501D510331193E3170D9F1C941D93C6
S1131F90013F00D409E20D9B0D9ADB43DB1713408C
S1131FA0013AE418D31A0D933A9B002B00D02DE28A
S1131FB0E3171294002501241393429B013B42939F
S1131FC0002B00DB9AE201240025129B11931E933F
S1131FD0DB171F93109B5F1E002B00DDADE2109BEF
S1131FE0109ADB43DB171340119A9C1811E240232B
S1131FF03A001A401F4217D00722069B0733934327
S113200019000CC904920593069180233A001A40E2
S11320101F420FD06B461B8A0493002305934C4A3E
S11320203B075FD44B4A5DE0069B059202CB0491CB
S11320300693EAE7FB05F2D56B461B7C05920493F5
S1132040EDE740233A001A401F4220D00722069BA6
S11320500733934319000CC9049205930691802316
S11320603A001A401F4218D06B461B8A049300237F
S1132070059310213B0037480B40020011930F4297
S113208000D114E7344B1F40002311930FE7069B44
S1132090059202CB04910693E1E7FB05E9D56B4673
S11320A01B7C05920493E4E77B061DD50722069B5F
S11320B00733934319000CC90E920F9306913B0604
S11320C019D56B4638229B5E0E93DB170F930F9B3B
S11320D0002B18DA0E980F99002342428B41049288
S11320E005931E4A00238CE6069B04CB0E92D2175E
S11320F00F920693E3E7FB05E9D56B4638229B185C
S11321001B785BB2E0E70E9A0F9B04920593144A86
S1132110BB07E7D4134A7B07E4D483E710231F42A9
S113212000D0C6E41F43033B1093C2E428006F3879
S1132130092800D9E7E000F0FDFED28BE6E6E6E6EA
S113214017E6E68B6A3000004E3000000102000002
S1132150513000003F300000FFFDFFFF533000000E
S1132160553000005730000000231093049B059A5B
S1132170134300D1CCE6049C059D059B049ADB0720
S113218052081A43059B32925B083393049A059BC9
S113219092089B071A43059B34929B083593349805
S11321A03599329A339B12184B4119071009084389
S11321B019092C902D912C982D9912184B41190620
S11321C0100A0843190A2E902F912E982F9912184D
S11321D04B411904100C0843190C3090319130987C
S11321E0319912184B4100213C933D913C983D9903
S11321F012184B415907DB082B93D0080023062201
S113220008432A90A4185D412A982B990A22002396
S113221000F04EFE241A8D412B0722091A432B0984
S1132220369237930A222A9B2B9C36983799C018EA
S1132230614128254243049B109C30339B1A3EAADB
S113224052191355230001330490059110938DE71F
S113225000220F2048A9049C059B1C4319D110920D
S113226056E62800583811284DD800F06BFEF1FFCF
S11322704C004C004C004C004C004C004C004C00FA
S11322803C004C004C007DFF3C003C003C004C00FA
S11322907DFF049C119B04401C5D059B54541B074B
S11322A09C46049B01321D09059B1C0963462B4374
S11322B004930594CFE70498084030309854059867
S11322C0013345070498C40805982543C0080495BC
S11322D005900498059C2043EDD1109318E6002343
S11322E0072148AAF5E745AB039344AB029342ABFD
S11322F0019343AB009328003B00589C48AA46A98D
S1132300A047109004E60023E7E7429B109A9B1A2B
S113231000D412E63A9B10E6099BAB4203DC0CD1D5
S1132320089BA34209D9B368013BB360002B14DBBB
S113233033685A1C326020221A7001220023A41828
S11323405D410D9B5A1E131BE6D50D9B0D99DB4376
S1132350DB170B40D21A0D9202E631002020FFF762
S113236007F8EAE700240025EBE7099B159A934256
S113237004DC0CD1089B149A934208D9B368013B3E
S1132380B360002B0CDB33685A1C32601D700121D2
S1132390149B159C00225B18544114931594E2E598
S11323A031002800FEF7E4FFF1E7099B1D9A9342F0
S11323B004DC0DD1089B1C9A934209D9B368013BF4
S11323C0B360002B0DDB33685A1C3260119A1A700B
S11323D001201C9A1D9B002112184B411C921D9335
S11323E0D6E531001198FEF7C3FFF1E748ABE85C8E
S11323F0E3173C2821D03E286AD116941793459BB5
S1132400013B4593002B42DA169C0135109BAB42ED
S1132410ECDC3B9B002B0CD0E3170D9D2294239303
S1132420013D00D4A9E00D9B0D9ADB43DB1713405B
S1132430E418079B1B19FFF730FB18941993449B6E
S1132440013B4493002B01DA189CDEE7099B199A9F
S1132450934204DC0DD1089B189A934209D9B368BE
S1132460013BB360002B0DDB33685A1C3260302211
S11324701A700121189B199C00225B18544118936F
S11324801994DCE731003020FEF772FFF1E7099B75
S1132490179A934204DC0DD1089B169A934209D9EA
S11324A0B368013BB360002B0DDB33685A1C326008
S11324B030221A700121169B179C00225B1854418C
S11324C0169317949BE731003020FEF751FFF1E794
S11324D0099A934203DB0BD1089BA34208D9B36842
S11324E0013BB360002B05DB33685A1C3260187063
S11324F001348AE73100FEF73BFFF9E7099B139AA1
S1132500934204DC0DD1089B129A934209D9B36813
S1132510013BB360002B0BDB33685A1C3260302262
S11325201A70129A139B12196B411292139344E579
S113253031003020FEF71CFFF3E7099B1F9A9342FA
S113254004DC0ED1089B1E9A93420AD9B36848AAA8
S1132550013BB85CB360002B0BDB33685A1C326060
S113256018701E9A1F9B12196B411E921F933B00F9
S113257031E53100FEF7FCFEF3E7099B239A934211
S113258004DC0DD1089B229A934209D9B368013B1C
S1132590B360002B0DDB33685A1C326020221A70A2
S11325A00120229A239B002112184B41229223934B
S11325B036E731002020FEF7DBFEF1E70EB430B53C
S11325C094B017AB20CB04003C22002105A804934F
S11325D000F0E4FB0A2301220893104B00950793B3
S11325E00F4B52420293049B05A801930B4B059495
S11325F0FFF720F9079B0400013B0793002B08DB3E
S11326000022059B1A70200014B030BC08BC03B033
S1132610184705A90020FEF7ABFEF4E7FFFFFF7F94
S1132620212E0000F0B5C56804000120AE070CD0CF
S113263080208000824213D08020C000824205D0D6
S11326408020400082420BD0FF38F0BD21000123DE
S113265024311543002021612160E361E560F4E742
S1132660024F5E1E0120BE42F3D9EEE7FEFFFF00DB
S11326700300032110B51A000B4219D1114C136841
S1132680114959189943214219D0DCB2511C002C2C
S11326900BD0FF242402911C234206D0FF210904FD
S11326A00B40591E8B41D318D91C0130081A05E080
S11326B001335C1E2478002CDDD1101A10BD0432C5
S11326C0DDE7C04680808080FFFEFEFE70B50D4DC4
S11326D004002B68002B01D10B4B2B6003232E68C5
S11326E003349C433419200000F09AF8002802D1E6
S11326F02C60300070BD0C220126044B76421A6017
S1132700F7E7C046ECE1FF1F00E2FF1FF4E1FF1F03
S1132710F7B50D0001901000140000F033F82B7889
S1132720722B1CD0772B1DD0612B26D1144A593B18
S11327300220691C032784460426012508782B28D7
S113274013D0622816D0E260019A62611B0704D597
S1132750022200212000FEF793FF2000FEBD00238B
S11327600122E5E704230222E2E760463A430343F9
S11327700131E3E732432B43FAE70024EDE7C04697
S113278002800000F0B5C56804004769066989B095
S1132790AB0720D02B0716D400F022F8380000F045
S11327A0E1FB2B0502D5300000F0FCFA0B4BAD0D1C
S11327B0AD059D4207D120226846216A00F0E1FB65
S11327C0684600F02FFB3C220021200000F0E6FACE
S11327D0002009B0F0BD01204042FAE7000080ADBE
S11327E0F8B5002812D000F027F805002800F8BD3D
S11327F038006043084BC01800F01EF8002801D0D0
S113280001256D420134A642F2DCEFE7034B0400DC
S113281005003C271E68F6E738E1FF1F243000005E
S113282003000448002803D00022834252411000D0
S11328307047C04600EAFF1FC36870B503221E003C
S113284004001640134211D09B0611D5856AFEF789
S11328506FFDE368094A20001340E360FEF730FE91
S11328600022060029002000FEF70AFF300070BD98
S113287083690568ED180369ED1AEAE7FFCFFFFFE6
S113288080B500AF0020FEF743FCFEF713F8C04606
S1132890BD4680BD80B500AF01231800BD4680BD94
S11328A080B584B000AFF860B960BB1D1A80FB68C6
S11328B09B059B0D03D1FB681800FEF7A7FABB1D0F
S11328C01A88B968FB681800FEF7CAFAC046BD4604
S11328D004B080BD80B582B000AF0200FB1D1A7049
S11328E0FB1D1B782F2B08D9FB1D1B78392B04D813
S11328F0FB1D1B78303BDBB21AE0FB1D1B78402B21
S113290008D9FB1D1B78462B04D8FB1D1B78373BCD
S1132910DBB20DE0FB1D1B78602B08D9FB1D1B7877
S1132920662B04D8FB1D1B78573BDBB200E0FF236A
S11329301800BD4602B080BDF0B587B000AF786026
S11329400A00BB1C1A80BB1C1B88012213409BB2CB
S11329505A425341DBB2BA1C1288013A79688A1888
S113296012780A3A511E8A41D2B21340DBB2002BCC
S113297001D0002387E0BB1C1B88013B002B00DA3D
S113298001335B101A0015217B181A707B181B7811
S11329900121180000F01CFA03003B613B69002B85
S11329A001D100236FE00F23FB1800221A700E23BD
S11329B0FB1800221A701623FB1800221A804BE021
S11329C016243B191B885B001A007B689B181B7834
S11329D01800FFF77FFF03001A000E257B19120170
S11329E01A703B191B885B0001337A68D3181B7873
S11329F00F26BC191800FFF76DFF030023707B1925
S1132A001B78FF3B5A425341DAB2BB191B78FF3B98
S1132A1059424B41DBB21343DBB2002B01D00023FC
S1132A2031E016203B181B883A69D31819780E2315
S1132A30FA180F23FB1812781B781343DAB2040038
S1132A403B181B883869C3180A43D2B21A703B1961
S1132A501A883B1901321A8015217B181B789BB206
S1132A601622BA1812889A42AAD30C007B181A7834
S1132A7039697B68180000F08DF93B69180000F093
S1132A8091F93B191B781800BD4607B0F0BD80B51D
S1132A9084B000AF78600A00FB1C1A700F23FB1887
S1132AA000221A700E23FB1800221A7010E00E2068
S1132AB03B181B787A68D31819780F22BB18BA18F8
S1132AC012788A181A703B181A783B1801321A7057
S1132AD00E23FA18FB1C12781B789A42E7D30F23B3
S1132AE0FB181B78DB43DBB21800BD4604B080BD85
S1132AF090B587B000AFB9607A600F217B18021CD3
S1132B001A701723FB1800221A707B181B78042BE9
S1132B100FD013DC022B02D0032B05D00EE01723B9
S1132B20FB1802221A700AE01723FB1803221A70FA
S1132B3005E01723FB1804221A7000E0C04617248E
S1132B403B191A78BB681900012000F009F802004B
S1132B507B681A603B191B781800BD4607B090BD0E
S1132B6080B584B000AF39601100FB1D021C1A70DF
S1132B70BB1D0A1C1A700023FB600B23FB180022E8
S1132B801A702FE0FB1D1B78002B15D0BB1D1B7882
S1132B905A1E0B217B181B78D31A1A003B689B180A
S1132BA01B781A007B181B78DB009A4013001A006C
S1132BB0FB681343FB600FE00B217B181B783A681A
S1132BC0D3181B781A007B181B78DB009A4013007B
S1132BD01A00FB681343FB600B217B181A787B18DF
S1132BE001321A700B23FA18BB1D12781B789A4213
S1132BF0C8D3FB681800BD4604B080BD80B500AFE3
S1132C00FEF7EEF9C046BD4680BD80B500AFFEF7C5
S1132C10E3F8C046BD4680BD80B586B000AFF8601D
S1132C20B9607A6000237B610DE07B699A00FB68E0
S1132C30D3181A007B699B00B968CB1812681A6014
S1132C407B6901337B617A697B689A42EDD3C04624
S1132C50C046BD4606B080BD80B582B000AF786086
S1132C6008001100FB1C021C1A70BB1C0A1C1A7001
S1132C70BB1C1B78002B0BD17B685B69FA1C127898
S1132C80012191400A00D2431A407B685A6109E04D
S1132C907B685B69FA1C1278012191400A001A438F
S1132CA07B685A61C046BD4602B080BD80B582B023
S1132CB000AF78600A00FB1C1A707B681B69FA1C61
S1132CC01278012191400A00D24313405A1E9341C5
S1132CD0DBB21800BD4602B080BD80B582B000AF43
S1132CE078600A00FB1C1A707B68DB68FA1C127897
S1132CF0012191400A001A437B68DA60C046BD4650
S1132D0002B080BD80B584B000AFF860B960FB1D2F
S1132D101A70FB68BA689200D358032293431A00CE
S1132D20FB1D1B7803210B401A431100FB68BA6892
S1132D309200D150C046BD4604B080BD80B582B07B
S1132D4000AF78607A6896239B019A4205D07A682E
S1132D50E1235B029A4202D003E0102302E0112334
S1132D6000E000231800BD4602B080BD80B500AF6E
S1132D70FDF74EFBFDF768FBC046FDE780B500AFED
S1132D80C046BD4680BD10B5FEF716FDFFF7EEFF49
S1132D9010BDFEE710B500F0A2F810BD10B500F0AC
S1132DA0B4F810BD10B5002811D080210C384905A5
S1132DB001608268002A0AD013688B4207D14368F5
S1132DC0546803331B19436093688360F1E710BDB3
S1132DD00A0C70B51400030C89B280B25C43424300
S1132DE04B434843150C190C49199BB292B209196B
S1132DF09B18040CE418230C5B18002B0DD180B233
S1132E00240404432000FEF7BDFB051E03D022006A
S1132E100021FFF7C3FF280070BD01246442F1E7DD
S1132E200020704710B50400FFF722FC01002000C9
S1132E3000F0A1F810BD03000B4321D4002931D0C8
S1132E400122D207030901E0090112099942FBD9C1
S1132E50430801E0490052089942FBD900E04908BF
S1132E60401A07D35241FAD3014610467047490825
S1132E704018F7D29218FAD340180146104670470A
S1132E80CB0F00D04942021000D54042534008B550
S1132E90FFF7D4FF0CBC521000D34042002A00D5E7
S1132EA049421847F446002000F001F86047704793
S1132EB010B543435143C918040C130C5C4309195E
S1132EC092B2040C544380B2434350432204240C72
S1132ED0801861411A041B0C8018594110BD8446A6
S1132EE0830708D18B0706D1131F04D304C904C078
S1132EF0043BFBD21A1D524205D0891A801A8B5CFE
S1132F0083540132FBD1604670478446043A09D3A6
S1132F10830707D109060B0A19430B0C1943043A1A
S1132F2002C0FCD2043203D001700130013AFBD15B
S1132F30604670478C4671460139095C49008E44ED
S1132F40614670478C46411E7144095E49008E44B7
S1132F50614670478C46411E7144095A49008E44AB
S1132F60614670470120404270470120404270474B
S1132F7001204042704701204042704701204042F6
S1132F8070470120404270471000704748656C6CE0
S1132F906F20576F726C640D0A00FFFF454E544555
S1132FA05220424F4F54204D4F44450D0A0000001B
S1132FB0454E544552204150504C49434154494F89
S1132FC04E204D4F44450D0A00FFFFFF4A756D70BA
S1132FD020746F204170706C69636174696F6E2135
S1132FE00D0A00FF50726F6365737320646174612E
S1132FF0206661696C6564210D0A00FFC00A000047
S1133000200B0000880B0000F00B0000580C00009F
S1133010000B0000000B0000160C0000AE0B0000BB
S1133020460B0000030000002A2A2A205F4373791C
S1133030735F616C6C6F63206661696C65640A0020
S113304072007700286E756C6C2900305800307857
S11330500030002D002B002000303132333435365F
S113306037383941424344454600303132333435F0
S10F30703637383961626364656600FF1E
S10B307CFFFFFFFF0106FFFF47
S90300D527
