:1000000000600020D5000000430100004906000008
:1000100000000000000000000000000000000000E0
:100020000000000000000000000000004701000088
:100030000000000000000000490100004B0100002A
:100040004F010000570100005F0100006701000040
:100050006F010000770100007F01000087010000B0
:100060008F010000970100009F010000A701000020
:10007000AF010000B7010000BF010000C701000090
:10008000CF010000D7010000DF010000E701000000
:10009000EF010000F7010000FF010000070200006F
:1000A0000F020000170200001F02000027020000DC
:1000B0002F020000370200003F020000CB0C0000BE
:1000C000A00D000080E0FF1F0000000080E0FF1F87
:1000D000D000000010B572B600F008FB0D4B07E031
:1000E000186859681C000C349A6800F019F823004D
:1000F000094A9342F4D306E018681C000834596892
:1001000000F017F82300054A9342F5D362B600F0D9
:10011000F0FDFEE7C0000000CC000000D4000000AD
:1001200010B5002302E010C810C104339342FAD383
:1001300010BD002302E0002204C004338B42FAD336
:100140007047FEE7FEE7FEE7FEE7FEE7FEE710B5D5
:10015000FFF7FCFF10BD10B5FFF7F8FF10BD10B59D
:10016000FFF7F4FF10BD10B5FFF7F0FF10BD10B59D
:10017000FFF7ECFF10BD10B5FFF7E8FF10BD10B59D
:10018000FFF7E4FF10BD10B5FFF7E0FF10BD10B59D
:10019000FFF7DCFF10BD10B5FFF7D8FF10BD10B59D
:1001A000FFF7D4FF10BD10B5FFF7D0FF10BD10B59D
:1001B00000F066FA10BD10B500F074FA10BD10B56D
:1001C00000F082FA10BD10B5FFF7C0FF10BD10B5EA
:1001D000FFF7BCFF10BD10B5FFF7B8FF10BD10B59D
:1001E000FFF7B4FF10BD10B5FFF7B0FF10BD10B59D
:1001F000FFF7ACFF10BD10B5FFF7A8FF10BD10B59D
:10020000FFF7A4FF10BD10B5FFF7A0FF10BD10B59C
:10021000FFF79CFF10BD10B5FFF798FF10BD10B59C
:10022000FFF794FF10BD10B5FFF790FF10BD10B59C
:10023000FFF78CFF10BD10B5FFF788FF10BD10B59C
:10024000FFF784FF10BD10B5FFF780FF10BDFFFF63
:10025000FFFFFFFFFFFFFFFFFFFFFFFFFFFFFFFFAE
:10026000FFFFFFFFFFFFFFFFFFFFFFFFFFFFFFFF9E
:10027000FFFFFFFFFFFFFFFFFFFFFFFFFFFFFFFF8E
:10028000FFFFFFFFFFFFFFFFFFFFFFFFFFFFFFFF7E
:10029000FFFFFFFFFFFFFFFFFFFFFFFFFFFFFFFF6E
:1002A000FFFFFFFFFFFFFFFFFFFFFFFFFFFFFFFF5E
:1002B000FFFFFFFFFFFFFFFFFFFFFFFFFFFFFFFF4E
:1002C000FFFFFFFFFFFFFFFFFFFFFFFFFFFFFFFF3E
:1002D000FFFFFFFFFFFFFFFFFFFFFFFFFFFFFFFF2E
:1002E000FFFFFFFFFFFFFFFFFFFFFFFFFFFFFFFF1E
:1002F000FFFFFFFFFFFFFFFFFFFFFFFFFFFFFFFF0E
:10030000FFFFFFFFFFFFFFFFFFFFFFFFFFFFFFFFFD
:10031000FFFFFFFFFFFFFFFFFFFFFFFFFFFFFFFFED
:10032000FFFFFFFFFFFFFFFFFFFFFFFFFFFFFFFFDD
:10033000FFFFFFFFFFFFFFFFFFFFFFFFFFFFFFFFCD
:10034000FFFFFFFFFFFFFFFFFFFFFFFFFFFFFFFFBD
:10035000FFFFFFFFFFFFFFFFFFFFFFFFFFFFFFFFAD
:10036000FFFFFFFFFFFFFFFFFFFFFFFFFFFFFFFF9D
:10037000FFFFFFFFFFFFFFFFFFFFFFFFFFFFFFFF8D
:10038000FFFFFFFFFFFFFFFFFFFFFFFFFFFFFFFF7D
:10039000FFFFFFFFFFFFFFFFFFFFFFFFFFFFFFFF6D
:1003A000FFFFFFFFFFFFFFFFFFFFFFFFFFFFFFFF5D
:1003B000FFFFFFFFFFFFFFFFFFFFFFFFFFFFFFFF4D
:1003C000FFFFFFFFFFFFFFFFFFFFFFFFFFFFFFFF3D
:1003D000FFFFFFFFFFFFFFFFFFFFFFFFFFFFFFFF2D
:1003E000FFFFFFFFFFFFFFFFFFFFFFFFFFFFFFFF1D
:1003F000FFFFFFFFFFFFFFFFFFFFFFFFFFFFFFFF0D
:10040000FFFFFFFFFFFFFFFFFFFFFFFFFEFFFFFFFD
:1004100080B582B000AF0200FB1D1A70FB1D1B7877
:100420007F2B09D8FB1D1B781A001F231A40044B91
:10043000012191400A001A60C046BD4602B080BD4D
:1004400000E100E080B500AF80231B01180000F040
:10045000A7F81B4B01220321180000F0D5F8184B18
:1004600001220C21180000F0CFF8154B03220321C4
:10047000180000F00EFC124B03220C21180000F0B3
:1004800008FC104B00220321180000F099FB0D4BD3
:1004900000220C21180000F093FB094B0A220321D3
:1004A000180000F091F8064B0A220C21180000F009
:1004B0008BF81F20FFF7ACFFC046BD4680BDC0468D
:1004C00000B0044080F00F4080B500AFC0239B0116
:1004D000180000F065F8104B01220521180000F00B
:1004E00093F80E4B01221D21180000F08DF80C4BE3
:1004F00001220521180000F063FB0A4B01221D2197
:10050000180000F05DFB002000F00EF8002000F065
:1005100023F8C046BD4680BD00C0044000D0044062
:10052000C0F00F4000F10F4080B582B000AF020074
:10053000FB1D1A70FB1D1B785A425341DBB21A0097
:10054000044B0521180000F065FBC046BD4602B013
:1005500080BDC046C0F00F4080B582B000AF020041
:10056000FB1D1A70FB1D1B785A425341DBB21A0067
:10057000044B1D21180000F04DFBC046BD4602B0E3
:1005800080BDC04600F10F4080B500AF034B052190
:10059000180000F069FBC046BD4680BDC0F00F40AA
:1005A00080B582B000AF7860054A064BD258044946
:1005B0007B681343034A8B50C046BD4602B080BDE2
:1005C000007004403810000080B584B000AFF860BF
:1005D000B960FB1D1A70FB68BA689200D358094ACB
:1005E0001A40FB1D1B781904F0231B030B401A4310
:1005F0001100FB68BA689200D150C046BD4604B0F5
:1006000080BDC046FFFFF0FF80B584B000AFF8604A
:10061000B960FB1D1A70FB68BA689200D358094A8A
:100620001A40FB1D1B781902E023DB000B401A4324
:100630001100FB68BA689200D150C046BD4604B0B4
:1006400080BDC046FFF8FFFF04207146084202D07B
:10065000EFF3098001E0EFF3088081690A88074B16
:100660009A4200D0FEE7023181610168012901D080
:10067000002100E0202101607047C046ABBE0000B1
:1006800080B500AF044B1A68044B1B68044819007E
:100690009047C046BD4680BD84E0FF1F80E0FF1F3D
:1006A00000A0064080B500AF044B1A68044B5B689D
:1006B000044819009047C046BD4680BD94E0FF1F26
:1006C00088E0FF1F00B0064080B500AF044B1A68F9
:1006D000044B9B68044819009047C046BD4680BD46
:1006E00094E0FF1F88E0FF1F00C0064080B500AF08
:1006F000044A88235B010021D15000F0F5FAC0467E
:10070000BD4680BD007004402022C36810B59343ED
:10071000C3608269836A04009A420CD000F014F826
:10072000E268074B1A4010231343E360A36AA361F6
:100730002369E3622360E368024A1340E36010BD6B
:10074000EFCFFFFFBFBFFFFF70B50400134AE368A0
:1007500005691A400168C06AE26082221A40022AD2
:1007600002D00120404270BDDB030CD5814200D293
:1007700001008D4209D10023094AA360E368E562C4
:1007800013402560E3600020EDE722002800491BAC
:1007900000F008F80028EED0E3E7C046FFFFF7FFBF
:1007A000FFFFFEFFF7B5D5680F00140056690190F2
:1007B000EB0205D5102330001D4300F0DBFAA061E9
:1007C000104B1D420FD03000A16900F0DCFA002868
:1007D00006DA80230120E26840421343E3600FE021
:1007E000094B1D40E5603A003000019900F0D1FA54
:1007F0004300A2695B08FB1AD318A3610028E8D163
:10080000FEBDC04610000200EFFFFDFFF7B54369D3
:10081000C6680193364B04000D0000921E420BD0B7
:10082000019800F0AAFA071E06D1009B012B06D002
:10083000022B2DD0002B06D002273800FEBD200051
:1008400000F05AF82D18002DF6DBB30404D5236808
:10085000E26A9A4200D2E362A369AB420EDCE16A2B
:1008600022688A4200D20A002169D0180091401AF9
:10087000A84203DB206B1918A94228DC20231E4361
:100880000023A562A36063601A4B1E40E660D4E7B4
:10089000019800F06FFAE268002804DA802313431D
:1008A0000127E360C9E7E16A2368994200D90B0098
:1008B000A1695B1821695B1A920603D5A26A93426B
:1008C00000DA1300834200DA0300ED18BBE7EB1AED
:1008D000B50701D5181AA060F00703D50099521A80
:1008E0009A1A6260009AD118202321609E43CBE7B8
:1008F00003001000BFCFF7FFC16802008B0705D1CE
:10090000212201200E4B40421A60704720230B40E9
:1009100009030AD5002B02D0806A0138F5E79369F4
:100920000068C0181369C01AF7E7002B01D0806A6D
:10093000EBE70368816900695B18181AE5E7C046B0
:100940004CE1FF1F70B5184C18492200002000F040
:100950008BF8802380225B0000212000D20000F071
:100960002FF8134C134D22002900012000F07CF8D1
:10097000802380225B0000212000D20000F020F8BC
:100980000D4B1B68022B0DDD0C4C290022000220B0
:1009900000F06AF880238022002120005B00D20052
:1009A00000F00EF870BDC04698E0FF1F9C0D0000DF
:1009B000D4E0FF1F9E0D0000980D000010E1FF1F06
:1009C000F0B5C56804000120AE070CD0802080007F
:1009D000824213D08020C000824205D08020400097
:1009E00082420BD0FF38F0BD210001232431154392
:1009F000002021612160E361E560F4E7024F5E1EA3
:100A00000120BE42F3D9EEE7FEFFFF000300032101
:100A100010B51A000B4219D1114C1368114959181D
:100A20009943214219D0DCB2511C002C0BD0FF2479
:100A30002402911C234206D0FF2109040B40591EB9
:100A40008B41D318D91C0130081A05E001335C1E14
:100A50002478002CDDD1101A10BD0432DDE7C04629
:100A600080808080FFFEFEFEF7B50D000190100033
:100A7000140000F033F82B78722B1CD0772B1DD08C
:100A8000612B26D1144A593B0220691C0327844656
:100A90000426012508782B2813D0622816D0E2609E
:100AA000019A62611B0704D5022200212000FFF792
:100AB000ADFE2000FEBD00230122E5E70423022253
:100AC000E2E760463A4303430131E3E732432B4315
:100AD000FAE70024EDE7C04602800000F0B5C568E3
:100AE00004004769066989B0AB0720D02B0716D4EC
:100AF00000F022F8380000F03AF92B0502D530005A
:100B000000F001F90B4BAD0DAD059D4207D1202240
:100B10006846216A00F03AF9684600F00AF93C227A
:100B20000021200000F0EBF8002009B0F0BD01200A
:100B30004042FAE7000080ADF8B5002812D000F07E
:100B40001BF805002800F8BD38006043084BC018AA
:100B500000F012F8002801D001256D420134A642B0
:100B6000F2DCEFE7034B040005003C271E68F6E7C4
:100B700098E0FF1F980D0000C36870B503221E00A7
:100B800004001640134211D09B0611D5856AFFF769
:100B9000BBFDE368094A20001340E360FFF7D4FD82
:100BA0000022060029002000FFF730FE300070BD53
:100BB00083690568ED180369ED1AEAE7FFCFFFFFC7
:100BC00080B582B000AF786008001100FB1C021CE9
:100BD0001A70BB1C0A1C1A70BB1C1B78002B0BD193
:100BE0007B685B69FA1C1278012191400A00D243AC
:100BF0001A407B685A6109E07B685B69FA1C1278CD
:100C0000012191400A001A437B685A61C046BD46E3
:100C100002B080BD80B582B000AF786008001100DE
:100C2000FB1C021C1A70BB1C0A1C1A70BB1C1B7814
:100C3000002B0AD07B681B68FA1C127801219140B6
:100C40000A001A437B681A600AE07B681B68FA1C7A
:100C50001278012191400A00D2431A407B681A6041
:100C6000C046BD4602B080BD80B582B000AF78609E
:100C70000A00FB1C1A707B68DB68FA1C12780121E1
:100C800091400A001A437B68DA60C046BD4602B054
:100C900080BD80B584B000AFF860B960FB1D1A70EC
:100CA000FB68BA689200D358032293431A00FB1DD5
:100CB0001B7803210B401A431100FB68BA689200AD
:100CC000D150C046BD4604B080BD80B500AFFFF72F
:100CD0005BFCC046BD4680BD80B500AFFFF7F4FBAE
:100CE000FFF7B0FBC046FDE780B500AFC046BD468C
:100CF00080BD10B5FFF726FEFFF7EEFF10BD10B563
:100D000000F020F810BD10B5002811D080210C385B
:100D1000490501608268002A0AD013688B4207D116
:100D20004368546803331B19436093688360F1E799
:100D300010BD10B50400FFF769FE0100200000F0AF
:100D40001FF810BD8446043A09D3830707D109066A
:100D50000B0A19430B0C1943043A02C0FCD20432AB
:100D600003D001700130013AFBD160467047012089
:100D70004042704701204042704701204042704786
:100D8000012040427047012040427047012040420C
:100D9000704710007047FFFF0300000072007700EB
:04000003000000D524
:00000001FF
